{"abi":[{"type":"constructor","inputs":[{"name":"usdc_","type":"address","internalType":"address"},{"name":"pythAdapter_","type":"address","internalType":"address"}],"stateMutability":"nonpayable"},{"type":"function","name":"DEFAULT_MAX_LEVERAGE","inputs":[],"outputs":[{"name":"","type":"uint256","internalType":"uint256"}],"stateMutability":"view"},{"type":"function","name":"HEALTH_FACTOR_THRESHOLD","inputs":[],"outputs":[{"name":"","type":"uint256","internalType":"uint256"}],"stateMutability":"view"},{"type":"function","name":"LIQUIDATION_REWARD_BPS","inputs":[],"outputs":[{"name":"","type":"uint256","internalType":"uint256"}],"stateMutability":"view"},{"type":"function","name":"TRADING_FEE_BPS","inputs":[],"outputs":[{"name":"","type":"uint256","internalType":"uint256"}],"stateMutability":"view"},{"type":"function","name":"closeLong","inputs":[{"name":"positionId","type":"bytes32","internalType":"bytes32"},{"name":"pythUpdateData","type":"bytes[]","internalType":"bytes[]"}],"outputs":[{"name":"pnl","type":"int256","internalType":"int256"}],"stateMutability":"payable"},{"type":"function","name":"closeShort","inputs":[{"name":"positionId","type":"bytes32","internalType":"bytes32"},{"name":"pythUpdateData","type":"bytes[]","internalType":"bytes[]"}],"outputs":[{"name":"pnl","type":"int256","internalType":"int256"}],"stateMutability":"payable"},{"type":"function","name":"depositLiquidity","inputs":[{"name":"pxToken","type":"address","internalType":"address"},{"name":"usdcAmount","type":"uint256","internalType":"uint256"}],"outputs":[{"name":"lpShares","type":"uint256","internalType":"uint256"}],"stateMutability":"nonpayable"},{"type":"function","name":"depositPxReserve","inputs":[{"name":"pxToken","type":"address","internalType":"address"},{"name":"amount","type":"uint256","internalType":"uint256"}],"outputs":[{"name":"","type":"uint256","internalType":"uint256"}],"stateMutability":"nonpayable"},{"type":"function","name":"getOpenPositionCount","inputs":[{"name":"pxToken","type":"address","internalType":"address"}],"outputs":[{"name":"","type":"uint256","internalType":"uint256"}],"stateMutability":"view"},{"type":"function","name":"getPoolConfig","inputs":[{"name":"pxToken","type":"address","internalType":"address"}],"outputs":[{"name":"","type":"tuple","internalType":"struct XStreamExchange.PoolConfig","components":[{"name":"xStock","type":"address","internalType":"address"},{"name":"pythFeedId","type":"bytes32","internalType":"bytes32"},{"name":"usdcLiquidity","type":"uint256","internalType":"uint256"},{"name":"pxReserve","type":"uint256","internalType":"uint256"},{"name":"totalFees","type":"uint256","internalType":"uint256"},{"name":"openInterestLong","type":"uint256","internalType":"uint256"},{"name":"openInterestShort","type":"uint256","internalType":"uint256"},{"name":"lpToken","type":"address","internalType":"address"},{"name":"maxLeverage","type":"uint256","internalType":"uint256"}]}],"stateMutability":"view"},{"type":"function","name":"getPosition","inputs":[{"name":"positionId","type":"bytes32","internalType":"bytes32"}],"outputs":[{"name":"","type":"tuple","internalType":"struct XStreamExchange.Position","components":[{"name":"trader","type":"address","internalType":"address"},{"name":"pxToken","type":"address","internalType":"address"},{"name":"isLong","type":"bool","internalType":"bool"},{"name":"size","type":"uint256","internalType":"uint256"},{"name":"entryPrice","type":"uint256","internalType":"uint256"},{"name":"collateral","type":"uint256","internalType":"uint256"},{"name":"leverage","type":"uint256","internalType":"uint256"},{"name":"openedAt","type":"uint256","internalType":"uint256"}]}],"stateMutability":"view"},{"type":"function","name":"getUnrealizedPnl","inputs":[{"name":"positionId","type":"bytes32","internalType":"bytes32"},{"name":"pythUpdateData","type":"bytes[]","internalType":"bytes[]"}],"outputs":[{"name":"pnl","type":"int256","internalType":"int256"},{"name":"currentPrice","type":"uint256","internalType":"uint256"},{"name":"isLiquidatable","type":"bool","internalType":"bool"}],"stateMutability":"payable"},{"type":"function","name":"keeper","inputs":[],"outputs":[{"name":"","type":"address","internalType":"address"}],"stateMutability":"view"},{"type":"function","name":"liquidate","inputs":[{"name":"positionId","type":"bytes32","internalType":"bytes32"},{"name":"pythUpdateData","type":"bytes[]","internalType":"bytes[]"}],"outputs":[{"name":"keeperReward","type":"uint256","internalType":"uint256"}],"stateMutability":"payable"},{"type":"function","name":"liquidateByIndex","inputs":[{"name":"pxToken","type":"address","internalType":"address"},{"name":"index","type":"uint256","internalType":"uint256"},{"name":"pythUpdateData","type":"bytes[]","internalType":"bytes[]"}],"outputs":[{"name":"keeperReward","type":"uint256","internalType":"uint256"}],"stateMutability":"payable"},{"type":"function","name":"marketOpen","inputs":[],"outputs":[{"name":"","type":"bool","internalType":"bool"}],"stateMutability":"view"},{"type":"function","name":"openLong","inputs":[{"name":"pxToken","type":"address","internalType":"address"},{"name":"collateral","type":"uint256","internalType":"uint256"},{"name":"leverage","type":"uint256","internalType":"uint256"},{"name":"pythUpdateData","type":"bytes[]","internalType":"bytes[]"}],"outputs":[{"name":"positionId","type":"bytes32","internalType":"bytes32"}],"stateMutability":"payable"},{"type":"function","name":"openPositionIds","inputs":[{"name":"pxToken","type":"address","internalType":"address"},{"name":"","type":"uint256","internalType":"uint256"}],"outputs":[{"name":"","type":"bytes32","internalType":"bytes32"}],"stateMutability":"view"},{"type":"function","name":"openShort","inputs":[{"name":"pxToken","type":"address","internalType":"address"},{"name":"collateral","type":"uint256","internalType":"uint256"},{"name":"leverage","type":"uint256","internalType":"uint256"},{"name":"pythUpdateData","type":"bytes[]","internalType":"bytes[]"}],"outputs":[{"name":"positionId","type":"bytes32","internalType":"bytes32"}],"stateMutability":"payable"},{"type":"function","name":"owner","inputs":[],"outputs":[{"name":"","type":"address","internalType":"address"}],"stateMutability":"view"},{"type":"function","name":"pools","inputs":[{"name":"pxToken","type":"address","internalType":"address"}],"outputs":[{"name":"xStock","type":"address","internalType":"address"},{"name":"pythFeedId","type":"bytes32","internalType":"bytes32"},{"name":"usdcLiquidity","type":"uint256","internalType":"uint256"},{"name":"pxReserve","type":"uint256","internalType":"uint256"},{"name":"totalFees","type":"uint256","internalType":"uint256"},{"name":"openInterestLong","type":"uint256","internalType":"uint256"},{"name":"openInterestShort","type":"uint256","internalType":"uint256"},{"name":"lpToken","type":"address","internalType":"address"},{"name":"maxLeverage","type":"uint256","internalType":"uint256"}],"stateMutability":"view"},{"type":"function","name":"positions","inputs":[{"name":"positionId","type":"bytes32","internalType":"bytes32"}],"outputs":[{"name":"trader","type":"address","internalType":"address"},{"name":"pxToken","type":"address","internalType":"address"},{"name":"isLong","type":"bool","internalType":"bool"},{"name":"size","type":"uint256","internalType":"uint256"},{"name":"entryPrice","type":"uint256","internalType":"uint256"},{"name":"collateral","type":"uint256","internalType":"uint256"},{"name":"leverage","type":"uint256","internalType":"uint256"},{"name":"openedAt","type":"uint256","internalType":"uint256"}],"stateMutability":"view"},{"type":"function","name":"pythAdapter","inputs":[],"outputs":[{"name":"","type":"address","internalType":"contract PythAdapter"}],"stateMutability":"view"},{"type":"function","name":"registerPool","inputs":[{"name":"xStock","type":"address","internalType":"address"},{"name":"pxToken","type":"address","internalType":"address"},{"name":"pythFeedId","type":"bytes32","internalType":"bytes32"}],"outputs":[],"stateMutability":"nonpayable"},{"type":"function","name":"renounceOwnership","inputs":[],"outputs":[],"stateMutability":"nonpayable"},{"type":"function","name":"setKeeper","inputs":[{"name":"keeper_","type":"address","internalType":"address"}],"outputs":[],"stateMutability":"nonpayable"},{"type":"function","name":"setMarketOpen","inputs":[{"name":"open_","type":"bool","internalType":"bool"}],"outputs":[],"stateMutability":"nonpayable"},{"type":"function","name":"setMaxLeverage","inputs":[{"name":"pxToken","type":"address","internalType":"address"},{"name":"maxLev","type":"uint256","internalType":"uint256"}],"outputs":[],"stateMutability":"nonpayable"},{"type":"function","name":"settleAllPositions","inputs":[{"name":"pxToken","type":"address","internalType":"address"},{"name":"pythUpdateData","type":"bytes[]","internalType":"bytes[]"}],"outputs":[{"name":"positionsClosed","type":"uint256","internalType":"uint256"},{"name":"netPnl","type":"int256","internalType":"int256"}],"stateMutability":"payable"},{"type":"function","name":"transferOwnership","inputs":[{"name":"newOwner","type":"address","internalType":"address"}],"outputs":[],"stateMutability":"nonpayable"},{"type":"function","name":"usdc","inputs":[],"outputs":[{"name":"","type":"address","internalType":"contract IERC20"}],"stateMutability":"view"},{"type":"function","name":"withdrawLiquidity","inputs":[{"name":"pxToken","type":"address","internalType":"address"},{"name":"lpShares","type":"uint256","internalType":"uint256"}],"outputs":[{"name":"usdcReturned","type":"uint256","internalType":"uint256"}],"stateMutability":"nonpayable"},{"type":"event","name":"Liquidated","inputs":[{"name":"positionId","type":"bytes32","indexed":true,"internalType":"bytes32"},{"name":"liquidator","type":"address","indexed":false,"internalType":"address"},{"name":"keeperReward","type":"uint256","indexed":false,"internalType":"uint256"},{"name":"collateralSeized","type":"uint256","indexed":false,"internalType":"uint256"}],"anonymous":false},{"type":"event","name":"LiquidityDeposited","inputs":[{"name":"provider","type":"address","indexed":true,"internalType":"address"},{"name":"pxToken","type":"address","indexed":true,"internalType":"address"},{"name":"usdcAmount","type":"uint256","indexed":false,"internalType":"uint256"},{"name":"lpShares","type":"uint256","indexed":false,"internalType":"uint256"}],"anonymous":false},{"type":"event","name":"LiquidityWithdrawn","inputs":[{"name":"provider","type":"address","indexed":true,"internalType":"address"},{"name":"pxToken","type":"address","indexed":true,"internalType":"address"},{"name":"usdcReturned","type":"uint256","indexed":false,"internalType":"uint256"},{"name":"lpShares","type":"uint256","indexed":false,"internalType":"uint256"}],"anonymous":false},{"type":"event","name":"MarketClosed","inputs":[{"name":"timestamp","type":"uint256","indexed":false,"internalType":"uint256"}],"anonymous":false},{"type":"event","name":"MarketOpened","inputs":[{"name":"timestamp","type":"uint256","indexed":false,"internalType":"uint256"}],"anonymous":false},{"type":"event","name":"OwnershipTransferred","inputs":[{"name":"previousOwner","type":"address","indexed":true,"internalType":"address"},{"name":"newOwner","type":"address","indexed":true,"internalType":"address"}],"anonymous":false},{"type":"event","name":"PoolRegistered","inputs":[{"name":"xStock","type":"address","indexed":true,"internalType":"address"},{"name":"pxToken","type":"address","indexed":true,"internalType":"address"},{"name":"pythFeedId","type":"bytes32","indexed":false,"internalType":"bytes32"}],"anonymous":false},{"type":"event","name":"PositionClosed","inputs":[{"name":"positionId","type":"bytes32","indexed":true,"internalType":"bytes32"},{"name":"exitPrice","type":"uint256","indexed":false,"internalType":"uint256"},{"name":"pnl","type":"int256","indexed":false,"internalType":"int256"},{"name":"collateralReturned","type":"uint256","indexed":false,"internalType":"uint256"}],"anonymous":false},{"type":"event","name":"PositionOpened","inputs":[{"name":"positionId","type":"bytes32","indexed":true,"internalType":"bytes32"},{"name":"trader","type":"address","indexed":true,"internalType":"address"},{"name":"pxToken","type":"address","indexed":false,"internalType":"address"},{"name":"isLong","type":"bool","indexed":false,"internalType":"bool"},{"name":"size","type":"uint256","indexed":false,"internalType":"uint256"},{"name":"entryPrice","type":"uint256","indexed":false,"internalType":"uint256"},{"name":"collateral","type":"uint256","indexed":false,"internalType":"uint256"},{"name":"leverage","type":"uint256","indexed":false,"internalType":"uint256"}],"anonymous":false},{"type":"error","name":"ExceedsMaxLeverage","inputs":[]},{"type":"error","name":"HighUtilization","inputs":[]},{"type":"error","name":"InsufficientLiquidity","inputs":[]},{"type":"error","name":"InsufficientPxReserve","inputs":[]},{"type":"error","name":"MarketAlreadyOpen","inputs":[]},{"type":"error","name":"MarketNotOpen","inputs":[]},{"type":"error","name":"NoOpenPositions","inputs":[]},{"type":"error","name":"NotPositionOwner","inputs":[]},{"type":"error","name":"OnlyKeeper","inputs":[]},{"type":"error","name":"OwnableInvalidOwner","inputs":[{"name":"owner","type":"address","internalType":"address"}]},{"type":"error","name":"OwnableUnauthorizedAccount","inputs":[{"name":"account","type":"address","internalType":"address"}]},{"type":"error","name":"PoolAlreadyRegistered","inputs":[]},{"type":"error","name":"PoolNotRegistered","inputs":[]},{"type":"error","name":"PositionNotLiquidatable","inputs":[]},{"type":"error","name":"ReentrancyGuardReentrantCall","inputs":[]}],"bytecode":{"object":"0x60c03461016257601f613a9d38819003918201601f19168301916001600160401b0383118484101761016657808492604094855283398101031261016257610052602061004b8361017a565b920161017a565b331561014f575f8054336001600160a01b0319821681178355604051949290916001600160a01b0316907f8be0079c531659141344cd1fd0a4f28419497f9722a3daafe3b4186f6b6457e09080a360017f9b779b17422d0df92223018b32b4d1fa46e071723d6817e2486d003becc55f00556001600160a01b039081166080521660a05261390e908161018f8239608051818181611074015281816115130152818161161401528181611b5201528181611de50152818161289a0152612a7b015260a05181818161040c0152818161097701528181610bc001528181610f740152818161179401528181611cd70152818161234a01526126ab0152f35b631e4fbdf760e01b5f525f60045260245ffd5b5f80fd5b634e487b7160e01b5f52604160045260245ffd5b51906001600160a01b03821682036101625756fe60806040526004361015610011575f80fd5b5f5f3560e01c908163058843c214611c5b57816306d47de914611a3157816309ef2ed5146119845781630f0f63e4146119625781631928b3cb146118515781632dae26e2146118195781632dbc76d5146117c357816337e301df1461177f57816339b41b4a146115425781633e413bee146114fe578163514ea4bf146114745781635610f0071461139957816361b02f2914610ef9578163715018a614610ea0578163748747e614610e615781637b6f775a14610e2057816385260d4214610daf578163852b672f14610d935781638da5cb5b14610d6d578163a4063dbc14610ccc578163a82ef16e14610b3c578163aced166114610b14578163c3e91fae14610a83578163c45b57fd14610917578163c66bc046146108f5578163c8f0c26a146108d3578163cbfe97e9146105d7578163cdc1abd614610388578163dd4d7bf71461036d578163f29486a114610239578163f2fde38b146101b1575063f90a3ba01461017c575f80fd5b602061019861018a3661210b565b916101936125e6565b612644565b60015f5160206138b95f395f51905f5255604051908152f35b34610236576020366003190112610236576101ca61204f565b6101d261261e565b6001600160a01b031680156102225781546001600160a01b03198116821783556001600160a01b03167f8be0079c531659141344cd1fd0a4f28419497f9722a3daafe3b4186f6b6457e08380a380f35b631e4fbdf760e01b82526004829052602482fd5b80fd5b346102365760203660031901126102365760406101209161025861204f565b81610100845161026781612158565b82815282602082015282868201528260608201528260808201528260a08201528260c08201528260e0820152015260018060a01b031681526002602052206040516102b181612158565b60018060a01b03825416918282526001810154602083019081526002820154604084019081526003830154606085019081526004840154906080860191825260058501549260a0870193845260068601549460c08801958652610100600860018060a01b0360078a0154169860e08b01998a52015498019788526040519889525160208901525160408801525160608701525160808601525160a08501525160c084015260018060a01b0390511660e083015251610100820152f35b34610236578060031936011261023657602060405160058152f35b6103913661210b565b61039c9392936125e6565b83835260036020526040832080549091906001600160a01b031680156105c857331415806105b3575b6105a457600182019260018060a01b038454168552600260205260408086209160018301546104078351958693849363455b5aeb60e11b855260048501612210565b0381347f00000000000000000000000000000000000000000000000000000000000000006001600160a01b03165af19182156105995791869492918594928792610567575b5060028301805490600385019182546104659086612999565b61046e916129b1565b670de0b6b3a76400009005998a95866104879186612a09565b965461049c91906001600160a01b0316612b1f565b5490546104a891612197565b670de0b6b3a7640000900464e8d4a51000900490600501908154906104cc916121c8565b90556040519283926104ef92846040919493926060820195825260208201520152565b037f3dded4c2cf0ba5c07ce5d2115bf063b4eb7183188b6b84cda666798474fcb8ff91a2815260036020526040902061054b9060065f918281558260018201558260028201558260038201558260048201558260058201550155565b60015f5160206138b95f395f51905f5255604051908152602090f35b61058a91925060403d604011610592575b6105828183612175565b8101906121fa565b50908861044c565b503d610578565b6040513d87823e3d90fd5b6370d645e360e01b8452600484fd5b506001546001600160a01b03163314156103c5565b6370d645e360e01b8552600485fd5b34610236576060366003190112610236576105f061204f565b6024356001600160a01b03811691908290036108cf5760443561061161261e565b828452600260205260408420546001600160a01b03166108c0576040516395d89b4160e01b81528481600481875afa908115610599576003602080936106869389916108a6575b506040519481869251918291018484015e8101620204c560ec1b838201520301601c19810184520182612175565b6040516395d89b4160e01b8152908582600481885afa91821561089b576003602080946106e2938a91610879575b506040519581879251918291018484015e81016202d4c560ec1b838201520301601c19810185520183612175565b60405191610d14918284019284841067ffffffffffffffff851117610865576107308594936107228b94606094612ba589396080875260808701906125c2565b9085820360208701526125c2565b923060408201520152039085f091821561085a577f05ca1aa90370e392e89f322e2ac427c8db4ba5b9de436601b716fe48613022ec916020916008866040519261077984612158565b60018060a01b031696878452898685018681526040860182815260608701838152608088019184835260a0890193858552604060c08b019680885260e08c019860018060a01b031689526101008c0199674563918244f400008b52815260028e52209960018060a01b039060018060a01b03905116166001600160601b0360a01b8b5416178a555160018a015551600289015551600388015551600487015551600586015551600685015560018060a01b03905116600784019060018060a01b03166001600160601b0360a01b82541617905551910155604051908152a380f35b6040513d86823e3d90fd5b634e487b7160e01b89526041600452602489fd5b61089591503d808c833e61088d8183612175565b81019061254f565b8a6106b4565b6040513d88823e3d90fd5b6108ba91503d808b833e61088d8183612175565b89610658565b6359f4180f60e11b8452600484fd5b8280fd5b346102365780600319360112610236576020604051674563918244f400008152f35b34610236578060031936011261023657602060ff600654166040519015158152f35b6109203661210b565b918352600360209081526040808520600180820180546001600160a01b0316885260029094528287200154825163455b5aeb60e11b815291958795929493928592839261097292909160048501612210565b0381347f00000000000000000000000000000000000000000000000000000000000000006001600160a01b03165af1918215610599578592610a5d575b506109ce908260028601549160ff6003880154915460a01c16926129d3565b928484126109f0575b5060609350604051928352602083015215156040820152f35b90915064e8d4a51000610a028461253f565b0493670de0b6b3a7640000850294808604670de0b6b3a76400001490151715610a495750610a406060946004670b1a2bc2ec500000930154906121aa565b101590846109d7565b634e487b7160e01b81526011600452602490fd5b6109ce919250610a7b9060403d604011610592576105828183612175565b5091906109af565b604036600319011261023657610a9761204f565b9060243567ffffffffffffffff8111610b1057610ab8903690600401612065565b60015490939192906001600160a01b03163303610b01576040610ae4858585610adf6125e6565b6122f6565b60015f5160206138b95f395f51905f525582519182526020820152f35b63c60eb33560e01b8152600490fd5b5080fd5b346102365780600319360112610236576001546040516001600160a01b039091168152602090f35b610b453661210b565b610b509392936125e6565b83835260036020526040832080549091906001600160a01b031680156105c85733141580610cb7575b6105a457600182019260018060a01b03845416855260026020526040808620916001830154610bbb8351958693849363455b5aeb60e11b855260048501612210565b0381347f00000000000000000000000000000000000000000000000000000000000000006001600160a01b03165af19182156105995791869492918594928792610c95575b50600283018054906003850191825485610c1991612999565b610c22916129b1565b670de0b6b3a76400009005998a9586610c3b9186612a09565b9682546003860190815490610c4f916121ed565b905554610c6591906001600160a01b0316612b1f565b549054610c7191612197565b670de0b6b3a7640000900464e8d4a51000900490600601908154906104cc916121c8565b610caf91925060403d604011610592576105828183612175565b509088610c00565b506001546001600160a01b0316331415610b79565b3461023657602036600319011261023657610120906040906001600160a01b03610cf461204f565b16815260026020522060018060a01b0381541690600181015490600281015460038201546004830154600584015491600685015493600860018060a01b0360078801541696015496604051988952602089015260408801526060870152608086015260a085015260c084015260e0830152610100820152f35b34610236578060031936011261023657546040516001600160a01b039091168152602090f35b3461023657806003193601126102365760206040516103e88152f35b606036600319011261023657610dc361204f565b60443567ffffffffffffffff81116108cf579161019891610e14610ded6020953690600401612065565b939092610df86125e6565b6001600160a01b031681526004865260409020602435906120e2565b90549060031b1c612644565b3461023657604036600319011261023657610e3961204f565b610e4161261e565b6001600160a01b0316815260026020526040812060243560089091015580f35b3461023657602036600319011261023657610e7a61204f565b610e8261261e565b60018060a01b03166001600160601b0360a01b600154161760015580f35b34610236578060031936011261023657610eb861261e565b80546001600160a01b03198116825581906001600160a01b03167f8be0079c531659141344cd1fd0a4f28419497f9722a3daafe3b4186f6b6457e08280a380f35b610f0236612096565b91929360ff600654161561138a57610f186125e6565b6001600160a01b0381811680885260026020526040882080549196909490929091161561137b576008840154821161136c576040906001850154610f6f8351978893849363455b5aeb60e11b855260048501612210565b0381347f00000000000000000000000000000000000000000000000000000000000000006001600160a01b03165af193841561136157879461133f575b50670de0b6b3a7640000610fc08288612197565b04916005830283159084810460051482171561132b5761271090049064e8d4a5100085029085820464e8d4a5100014171561132b576c0c9f2c9cd04674edea40000000850290808204670de0b6b3a7640000149015171561132b5786611025916121aa565b938060028701541061131c57611040600587019182546121ed565b90556040516323b872dd60e01b815233600482015230602482015260448101899052916020836064818d6001600160a01b037f0000000000000000000000000000000000000000000000000000000000000000165af18015611311576006966110f9946004926112e4575b50016110b88382546121ed565b90556040805133602082019081526001600160a01b0393909316918101919091524260608083019190915281526110f0608082612175565b519020976121c8565b604051946111068661213b565b3386526020860193878552604087019460018652606088019182526080880192835260a0880193845260c0880194855260e08801954287528a8c52600360205260408c209860018060a01b039060018060a01b03905116166001600160601b0360a01b8a5416178955600189019160018060a01b039060018060a01b03905116166001600160601b0360a01b83541617825551151581549060ff60a01b9060a01b169060ff60a01b19161790555160028701555160038601555160048501555160058401555191015580835260046020526040832054828452600560205260408420558252600460205260408220805490600160401b8210156112d057928261123261121c8460209760016040970181556120e2565b819391549060031b91821b915f19901b19161790565b90558281526003845220817f300374600a25b81aa469ee737c7ea6d4f7cab9083261ea3fab475980dba7692460c060018060a01b03845416936001810154906002810154906003810154600560048301549201549260ff6040519560018060a01b038116875260a01c1615158b86015260408501526060840152608083015260a0820152a360015f5160206138b95f395f51905f5255604051908152f35b634e487b7160e01b84526041600452602484fd5b6113059060203d60201161130a575b6112fd8183612175565b8101906121d5565b6110ab565b503d6112f3565b6040513d8c823e3d90fd5b63bb55fd2760e01b8a5260048afd5b634e487b7160e01b8a52601160045260248afd5b61135991945060403d604011610592576105828183612175565b509287610fac565b6040513d89823e3d90fd5b6334bcdead60e11b8852600488fd5b63739f418560e01b8852600488fd5b63300b4e3360e21b8652600486fd5b34610236576040366003190112610236576113b261204f565b602435906113be6125e6565b6001600160a01b03908116808452600260205260408420805490921615611465576040516323b872dd60e01b815233600482015230602482015260448101849052906020908290606490829088905af1801561085a5790600392916020955061144a575b500161142f8282546121ed565b905560015f5160206138b95f395f51905f5255604051908152f35b61146090853d871161130a576112fd8183612175565b611422565b63739f418560e01b8452600484fd5b3461023657602036600319011261023657604061010091600435815260036020522060018060a01b03815416906001810154906002810154600382015460048301549160ff600660058601549501549560405197885260018060a01b038116602089015260a01c16151560408701526060860152608085015260a084015260c083015260e0820152f35b346102365780600319360112610236576040517f00000000000000000000000000000000000000000000000000000000000000006001600160a01b03168152602090f35b346102365760403660031901126102365761155b61204f565b602435906115676125e6565b6001600160a01b0390811680845260026020526040842080549093919216156114655760078301546040516318160ddd60e01b81526001600160a01b0390911690602081600481855afa90811561089b578691611749575b508061172b575064e8d4a51000820282810464e8d4a51000148315171561171757935b6040516323b872dd60e01b815233600482015230602482015260448101849052906020826064818a6001600160a01b037f0000000000000000000000000000000000000000000000000000000000000000165af1918215611361576002926116fa575b50016116528382546121ed565b9055803b156116f6576040516340c10f1960e01b8152336004820152602481018590529085908290604490829084905af18015610599576116dd575b506020935060405190815282848201527f44504979f82d498dad8a0687fc02e140be70b1b4ab3b9e23c6ffc1d04410194a60403392a360015f5160206138b95f395f51905f5255604051908152f35b6116e8858092612175565b6116f2578361168e565b8380fd5b8480fd5b6117129060203d60201161130a576112fd8183612175565b611645565b634e487b7160e01b86526011600452602486fd5b6117386117439184612197565b6002860154906121aa565b936115e2565b90506020813d602011611777575b8161176460209383612175565b810103126117735751866115bf565b5f80fd5b3d9150611757565b346102365780600319360112610236576040517f00000000000000000000000000000000000000000000000000000000000000006001600160a01b03168152602090f35b34610236576040366003190112610236576117dc61204f565b6001600160a01b031681526004602052604081208054602435929083101561023657602061180a84846120e2565b90549060031b1c604051908152f35b34610236576020366003190112610236576020906040906001600160a01b0361184061204f565b168152600483522054604051908152f35b34610236576020366003190112610236576040816101009260e083516118768161213b565b82815282602082015282858201528260608201528260808201528260a08201528260c0820152015260043581526003602052206040516118b58161213b565b60018060a01b03825416918282526001810154602083019060018060a01b038116825260ff604085019160a01c16151581526002830154606085019081526003840154916080860192835260048501549360a0870194855260e0600660058801549760c08a019889520154970196875260405197885260018060a01b03905116602088015251151560408701525160608601525160808501525160a08401525160c08301525160e0820152f35b3461023657806003193601126102365760206040516702c68af0bb1400008152f35b34610236576020366003190112610236576004358015158082036108cf576001546001600160a01b03163303611a225760ff8019600654169116176006555f146119f5577f877332afc4cf5a3b3ce30a19161c7d2e263703799bec37d80f6bbbf4199e59c76020604051428152a180f35b7f9dc30b8eda31a6a144e092e5de600955523a6a925cc15cc1d1b9b4872cfa61556020604051428152a180f35b63c60eb33560e01b8352600483fd5b3461177357604036600319011261177357611a4a61204f565b60243590611a566125e6565b6001600160a01b039081165f8181526002602052604090208054909391921615611c4c5760078301546040516318160ddd60e01b815293906001600160a01b0316602085600481845afa948515611bfe575f95611c18575b506002820191600580611ad6611acf865499611aca8b8a612197565b6121aa565b80996121c8565b9201540411611c0957803b1561177357604051632770a7eb60e21b815233600482015260248101849052905f908290604490829084905af18015611bfe57611be9575b50611b258482546121c8565b905560405163a9059cbb60e01b815233600482015260248101849052602081604481886001600160a01b037f0000000000000000000000000000000000000000000000000000000000000000165af180156105995760209550611bce575b5060405190838252848201527fba0b893b2f314a229997e335266881b5ac6b290bd350d2c23cc57160b77882b860403392a360015f5160206138b95f395f51905f5255604051908152f35b611be490853d871161130a576112fd8183612175565b611b83565b611bf69195505f90612175565b5f9385611b19565b6040513d5f823e3d90fd5b63192ee02760e31b5f5260045ffd5b9094506020813d602011611c44575b81611c3460209383612175565b8101031261177357519386611aae565b3d9150611c27565b63739f418560e01b5f5260045ffd5b611c6436612096565b91929360ff600654161561204057611c7a6125e6565b6001600160a01b038181165f818152600260205260409020805491969094909290911615611c4c5760088401548211612031576040906001850154611cd28351978893849363455b5aeb60e11b855260048501612210565b0381347f00000000000000000000000000000000000000000000000000000000000000006001600160a01b03165af1938415611bfe575f9461200f575b50670de0b6b3a7640000611d238288612197565b049160058302831590848104600514821715611ffb5761271090049064e8d4a5100085029085820464e8d4a51000141715611ffb576c0c9f2c9cd04674edea40000000850290808204670de0b6b3a76400001490151715611ffb5786611d88916121aa565b93600386018054868110611fec5786611da0916121c8565b9055611db1600687019182546121ed565b90556040516323b872dd60e01b815233600482015230602482015260448101899052916020836064815f6001600160a01b037f0000000000000000000000000000000000000000000000000000000000000000165af18015611bfe57600696611e28946004926112e45750016110b88382546121ed565b60405194611e358661213b565b33865260208087018881525f6040808a0182815260608b0198895260808b0195865260a0808c0197885260c08c019889524260e08d019081528e855260038088528486209d518e546001600160a01b0319166001600160a01b03918216178f55965160018f01805495516001600160a81b0319909616919098161793151590921b60ff60a01b1692909217909455975160028b0155935191890191909155925160048089019190915593516005808901919091559451959096019490945585815281855283812080548883529386529381208390559490945292909152909190600160401b831015611fd857611f3761121c84849360016020970181556120e2565b9055805f526003825260405f20817f300374600a25b81aa469ee737c7ea6d4f7cab9083261ea3fab475980dba7692460c060018060a01b03845416936001810154906002810154906003810154600560048301549201549260ff6040519560018060a01b038116875260a01c1615158b86015260408501526060840152608083015260a0820152a360015f5160206138b95f395f51905f5255604051908152f35b634e487b7160e01b5f52604160045260245ffd5b63806c622f60e01b5f5260045ffd5b634e487b7160e01b5f52601160045260245ffd5b61202991945060403d604011610592576105828183612175565b509286611d0f565b6334bcdead60e11b5f5260045ffd5b63300b4e3360e21b5f5260045ffd5b600435906001600160a01b038216820361177357565b9181601f840112156117735782359167ffffffffffffffff8311611773576020808501948460051b01011161177357565b906080600319830112611773576004356001600160a01b0381168103611773579160243591604435916064359067ffffffffffffffff8211611773576120de91600401612065565b9091565b80548210156120f7575f5260205f2001905f90565b634e487b7160e01b5f52603260045260245ffd5b90604060031983011261177357600435916024359067ffffffffffffffff8211611773576120de91600401612065565b610100810190811067ffffffffffffffff821117611fd857604052565b610120810190811067ffffffffffffffff821117611fd857604052565b90601f8019910116810190811067ffffffffffffffff821117611fd857604052565b81810292918115918404141715611ffb57565b81156121b4570490565b634e487b7160e01b5f52601260045260245ffd5b91908203918211611ffb57565b90816020910312611773575180151581036117735790565b91908201809211611ffb57565b9190826040910312611773576020825192015190565b928091604085019085526040602086015252606083019060608160051b85010193835f91601e1982360301905b84841061224e575050505050505090565b90919293949596605f19828203018752873583811215611773578401906020823592019167ffffffffffffffff8111611773578036038313611773576020828280600196849695859652848401375f828201840152601f01601f191601019901970195940192919061223d565b805480156122e2575f1901906122d182826120e2565b8154905f199060031b1b1916905555565b634e487b7160e01b5f52603160045260245ffd5b6001600160a01b039081165f8181526002602052604081208054959691959194909390911615611c4c5760409060018401546123458351988993849363455b5aeb60e11b855260048501612210565b0381347f00000000000000000000000000000000000000000000000000000000000000006001600160a01b03165af1948515611bfe575f9561251d575b505f52600460205260405f2080549485861561251157805b6123a45750505050565b5f19016123b181846120e2565b90549060031b1c805f52600360205260405f20966002880197885460038201916123f66123ee84549389600185019560ff875460a01c16926129d3565b80928b612a09565b91818501945f8387129112908015821691151617611ffb5785949b8a825460a01c60ff16156124637f3dded4c2cf0ba5c07ce5d2115bf063b4eb7183188b6b84cda666798474fcb8ff9760ff9464e8d4a5100094670de0b6b3a7640000946124f8575b5054905490612197565b0404915460a01c165f146124e25761248060058b019182546121c8565b90555b604080518881526020810192909252810191909152606090a25f5260036020526124d360405f2060065f918281558260018201558260028201558260038201558260048201558260058201550155565b806124dd846122bb565b61239a565b6124f160068b019182546121c8565b9055612483565b6125096003835492019182546121ed565b90558f612459565b505f9550859450505050565b61253791955060403d604011610592576105828183612175565b50935f612382565b600160ff1b8114611ffb575f0390565b6020818303126117735780519067ffffffffffffffff8211611773570181601f820112156117735780519067ffffffffffffffff8211611fd857604051926125a1601f8401601f191660200185612175565b8284526020838301011161177357815f9260208093018386015e8301015290565b805180835260209291819084018484015e5f828201840152601f01601f1916010190565b60025f5160206138b95f395f51905f52541461260f5760025f5160206138b95f395f51905f5255565b633ee5aeb560e01b5f5260045ffd5b5f546001600160a01b0316330361263157565b63118cdaa760e01b5f523360045260245ffd5b5f8181526003602052604090208054909493919291906001600160a01b03161561298a57600185019060018060a01b038254165f5260026020526040805f209360018501546126a68351948593849363455b5aeb60e11b855260048501612210565b0381347f00000000000000000000000000000000000000000000000000000000000000006001600160a01b03165af1908115611bfe575f9161296a575b50600286019561270387546003830193845460ff875460a01c16926129d3565b5f81121561295b5761271a64e8d4a510009161253f565b04670de0b6b3a7640000810291818304670de0b6b3a76400001482151715611ffb576127546004670b1a2bc2ec50000092015480946121aa565b1061295b57808211156129525761276a916121c8565b915b6103e88302908382046103e81484151715611ffb5785946127f693612710879404996127988b886121c8565b6127a7600285019182546121ed565b9055835460a01c60ff16156129165764e8d4a51000670de0b6b3a76400006127d86127e49460059454905490612197565b040492019182546121c8565b90555b546001600160a01b0316612b1f565b8461286c575b60607f6f8a565eeae0f323a002db915a985c545ed76cd358004005fb31c32902e6a03991604051903382528760208301526040820152a25f52600360205261286a60405f2060065f918281558260018201558260028201558260038201558260048201558260058201550155565b565b60405163a9059cbb60e01b8152336004820152602481018690529091506020816044815f6001600160a01b037f0000000000000000000000000000000000000000000000000000000000000000165af18015611bfe5783927f6f8a565eeae0f323a002db915a985c545ed76cd358004005fb31c32902e6a039926060926128f7575b509150506127fc565b61290f9060203d60201161130a576112fd8183612175565b505f6128ee565b64e8d4a51000670de0b6b3a76400006127d861294b94846006955461294060038a019182546121ed565b905554905490612197565b90556127e7565b50505f9161276c565b636415f95960e01b5f5260045ffd5b612983915060403d604011610592576105828183612175565b505f6126e3565b6370d645e360e01b5f5260045ffd5b81810392915f138015828513169184121617611ffb57565b81810292915f8212600160ff1b821416611ffb578184051490151715611ffb57565b9091670de0b6b3a7640000935f146129fc576129f8926129f291612999565b906129b1565b0590565b6129f2906129f893612999565b9064e8d4a5100060029493055f8112155f14612acd57612a3c612a308260048501546121ed565b958694019182546121c8565b90555b81612a48575050565b5460405163a9059cbb60e01b81526001600160a01b0390911660048201526024810191909152602081806044810103815f7f00000000000000000000000000000000000000000000000000000000000000006001600160a01b03165af18015611bfe57612ab25750565b612aca9060203d60201161130a576112fd8183612175565b50565b612ad69061253f565b60048201805490939190808210612b02575050612afb5f9586945492019182546121ed565b9055612a3f565b81612afb92939550612b13916121c8565b958694019182546121ed565b60018060a01b03165f52600460205260405f20815f52600560205260405f2054908054915f198301928311611ffb5782612b61938203612b70575b50506122bb565b5f5260056020525f6040812055565b612b7a90836120e2565b90549060031b1c80612b8f61121c84866120e2565b90555f52600560205260405f20555f80612b5a56fe60c06040523461037757610d14803803806100198161037b565b9283398101906080818303126103775780516001600160401b03811161037757826100459183016103a0565b602082015190926001600160401b038211610377576100659183016103a0565b604082015190916001600160a01b038216820361037757606001519081151582036103775783516001600160401b03811161028857600354600181811c9116801561036d575b602082101461026a57601f811161030a575b50602094601f82116001146102a7579481929394955f9261029c575b50508160011b915f199060031b1c1916176003555b82516001600160401b03811161028857600454600181811c9116801561027e575b602082101461026a57601f8111610207575b506020601f82116001146101a457819293945f92610199575b50508160011b915f199060031b1c1916176004555b60805260a05260405161092290816103f2823960805181818161011401528181610193015261045f015260a0518181816101d2015281816103e40152818161049f01526108350152f35b015190505f8061013a565b601f1982169060045f52805f20915f5b8181106101ef575095836001959697106101d7575b505050811b0160045561014f565b01515f1960f88460031b161c191690555f80806101c9565b9192602060018192868b0151815501940192016101b4565b60045f527f8a35acfbc15ff81a39ae7d344fd709f28e8600b4aa8c65c6b64bfe7fe36bd19b601f830160051c81019160208410610260575b601f0160051c01905b8181106102555750610121565b5f8155600101610248565b909150819061023f565b634e487b7160e01b5f52602260045260245ffd5b90607f169061010f565b634e487b7160e01b5f52604160045260245ffd5b015190505f806100d9565b601f1982169560035f52805f20915f5b8881106102f2575083600195969798106102da575b505050811b016003556100ee565b01515f1960f88460031b161c191690555f80806102cc565b919260206001819286850151815501940192016102b7565b60035f527fc2575a0e9e593c00f959f8c92f12db2869c3395a3b0502d05e2516446f71f85b601f830160051c81019160208410610363575b601f0160051c01905b81811061035857506100bd565b5f815560010161034b565b9091508190610342565b90607f16906100ab565b5f80fd5b6040519190601f01601f191682016001600160401b0381118382101761028857604052565b81601f82011215610377578051906001600160401b038211610288576103cf601f8301601f191660200161037b565b928284526020838301011161037757815f9260208093018386015e830101529056fe6080806040526004361015610012575f80fd5b5f3560e01c90816306fdde03146106ee57508063095ea7b31461066c57806318160ddd1461064f57806323b872dd14610570578063313ce5671461055557806340c10f191461044057806370a082311461040957806392ff0d31146103cd57806395d89b41146102b25780639dc29fac14610174578063a9059cbb14610143578063d2f7265a146100ff5763dd62ed3e146100ab575f80fd5b346100fb5760403660031901126100fb576100c46107e7565b6100cc6107fd565b6001600160a01b039182165f908152600160209081526040808320949093168252928352819020549051908152f35b5f80fd5b346100fb575f3660031901126100fb576040517f00000000000000000000000000000000000000000000000000000000000000006001600160a01b03168152602090f35b346100fb5760403660031901126100fb5761016961015f6107e7565b6024359033610813565b602060405160018152f35b346100fb5760403660031901126100fb5761018d6107e7565b602435907f00000000000000000000000000000000000000000000000000000000000000006001600160a01b031633036102a3576001600160a01b03168015610290577f00000000000000000000000000000000000000000000000000000000000000001580610288575b80610281575b61027257805f525f60205260405f2054828110610259576020835f947fddf252ad1be2c89b69c2b068fc378daa952ba7f163c4a11628f55a4df523b3ef938587528684520360408620558060025403600255604051908152a3005b9063391434e360e21b5f5260045260245260445260645ffd5b638574adcf60e01b5f5260045ffd5b505f6101fe565b5060016101f8565b634b637e8f60e11b5f525f60045260245ffd5b633669159560e01b5f5260045ffd5b346100fb575f3660031901126100fb576040515f6004548060011c906001811680156103c3575b6020831081146103af57828552908115610393575060011461033e575b50819003601f01601f191681019067ffffffffffffffff82118183101761032a57610326829182604052826107bd565b0390f35b634e487b7160e01b5f52604160045260245ffd5b905060045f527f8a35acfbc15ff81a39ae7d344fd709f28e8600b4aa8c65c6b64bfe7fe36bd19b5f905b82821061037d575060209150820101826102f6565b6001816020925483858801015201910190610368565b90506020925060ff191682840152151560051b820101826102f6565b634e487b7160e01b5f52602260045260245ffd5b91607f16916102d9565b346100fb575f3660031901126100fb5760206040517f000000000000000000000000000000000000000000000000000000000000000015158152f35b346100fb5760203660031901126100fb576001600160a01b0361042a6107e7565b165f525f602052602060405f2054604051908152f35b346100fb5760403660031901126100fb576104596107e7565b602435907f00000000000000000000000000000000000000000000000000000000000000006001600160a01b031633036102a3576001600160a01b0316908115610542577f0000000000000000000000000000000000000000000000000000000000000000158061053b575b80610533575b610272576002549080820180921161051f5760207fddf252ad1be2c89b69c2b068fc378daa952ba7f163c4a11628f55a4df523b3ef915f9360025584845283825260408420818154019055604051908152a3005b634e487b7160e01b5f52601160045260245ffd5b5060016104cb565b505f6104c5565b63ec442f0560e01b5f525f60045260245ffd5b346100fb575f3660031901126100fb57602060405160128152f35b346100fb5760603660031901126100fb576105896107e7565b6105916107fd565b6001600160a01b0382165f818152600160209081526040808320338452909152902054909260443592915f1981106105cf575b506101699350610813565b83811061063457841561062157331561060e57610169945f52600160205260405f2060018060a01b0333165f526020528360405f2091039055846105c4565b634a1406b160e11b5f525f60045260245ffd5b63e602df0560e01b5f525f60045260245ffd5b8390637dc7a0d960e11b5f523360045260245260445260645ffd5b346100fb575f3660031901126100fb576020600254604051908152f35b346100fb5760403660031901126100fb576106856107e7565b602435903315610621576001600160a01b031690811561060e57335f52600160205260405f20825f526020528060405f20556040519081527f8c5be1e5ebec7d5bd14f71427d1e84f3dd0314c0f7b2291e5b200ac8c7c3b92560203392a3602060405160018152f35b346100fb575f3660031901126100fb575f6003548060011c906001811680156107b3575b6020831081146103af57828552908115610393575060011461075e5750819003601f01601f191681019067ffffffffffffffff82118183101761032a57610326829182604052826107bd565b905060035f527fc2575a0e9e593c00f959f8c92f12db2869c3395a3b0502d05e2516446f71f85b5f905b82821061079d575060209150820101826102f6565b6001816020925483858801015201910190610788565b91607f1691610712565b602060409281835280519182918282860152018484015e5f828201840152601f01601f1916010190565b600435906001600160a01b03821682036100fb57565b602435906001600160a01b03821682036100fb57565b6001600160a01b0316908115610290576001600160a01b0316918215610542577f000000000000000000000000000000000000000000000000000000000000000015806108e4575b806108dc575b61027257815f525f60205260405f20548181106108c357817fddf252ad1be2c89b69c2b068fc378daa952ba7f163c4a11628f55a4df523b3ef92602092855f525f84520360405f2055845f525f825260405f20818154019055604051908152a3565b8263391434e360e21b5f5260045260245260445260645ffd5b506001610861565b50600161085b56fea26469706673582212201435a2e4ec9fe9dfed6e1986d41717fe9883e071c7f2eae8a96bd516f9305af364736f6c634300081c00339b779b17422d0df92223018b32b4d1fa46e071723d6817e2486d003becc55f00a26469706673582212208edef2c14f55f775dc11f87d88a51412a37b01200827273ba16f86df9255676964736f6c634300081c0033","linkReferences":{}},"methodIdentifiers":{"DEFAULT_MAX_LEVERAGE()":"c8f0c26a","HEALTH_FACTOR_THRESHOLD()":"0f0f63e4","LIQUIDATION_REWARD_BPS()":"852b672f","TRADING_FEE_BPS()":"dd4d7bf7","closeLong(bytes32,bytes[])":"cdc1abd6","closeShort(bytes32,bytes[])":"a82ef16e","depositLiquidity(address,uint256)":"39b41b4a","depositPxReserve(address,uint256)":"5610f007","getOpenPositionCount(address)":"2dae26e2","getPoolConfig(address)":"f29486a1","getPosition(bytes32)":"1928b3cb","getUnrealizedPnl(bytes32,bytes[])":"c45b57fd","keeper()":"aced1661","liquidate(bytes32,bytes[])":"f90a3ba0","liquidateByIndex(address,uint256,bytes[])":"85260d42","marketOpen()":"c66bc046","openLong(address,uint256,uint256,bytes[])":"61b02f29","openPositionIds(address,uint256)":"2dbc76d5","openShort(address,uint256,uint256,bytes[])":"058843c2","owner()":"8da5cb5b","pools(address)":"a4063dbc","positions(bytes32)":"514ea4bf","pythAdapter()":"37e301df","registerPool(address,address,bytes32)":"cbfe97e9","renounceOwnership()":"715018a6","setKeeper(address)":"748747e6","setMarketOpen(bool)":"09ef2ed5","setMaxLeverage(address,uint256)":"7b6f775a","settleAllPositions(address,bytes[])":"c3e91fae","transferOwnership(address)":"f2fde38b","usdc()":"3e413bee","withdrawLiquidity(address,uint256)":"06d47de9"},"id":36}