{"abi":[{"type":"constructor","inputs":[{"name":"name_","type":"string","internalType":"string"},{"name":"symbol_","type":"string","internalType":"string"},{"name":"vault_","type":"address","internalType":"address"},{"name":"xStock_","type":"address","internalType":"address"}],"stateMutability":"nonpayable"},{"type":"function","name":"allowance","inputs":[{"name":"owner","type":"address","internalType":"address"},{"name":"spender","type":"address","internalType":"address"}],"outputs":[{"name":"","type":"uint256","internalType":"uint256"}],"stateMutability":"view"},{"type":"function","name":"approve","inputs":[{"name":"spender","type":"address","internalType":"address"},{"name":"value","type":"uint256","internalType":"uint256"}],"outputs":[{"name":"","type":"bool","internalType":"bool"}],"stateMutability":"nonpayable"},{"type":"function","name":"balanceOf","inputs":[{"name":"account","type":"address","internalType":"address"}],"outputs":[{"name":"","type":"uint256","internalType":"uint256"}],"stateMutability":"view"},{"type":"function","name":"burn","inputs":[{"name":"from","type":"address","internalType":"address"},{"name":"amount","type":"uint256","internalType":"uint256"}],"outputs":[],"stateMutability":"nonpayable"},{"type":"function","name":"decimals","inputs":[],"outputs":[{"name":"","type":"uint8","internalType":"uint8"}],"stateMutability":"view"},{"type":"function","name":"mint","inputs":[{"name":"to","type":"address","internalType":"address"},{"name":"amount","type":"uint256","internalType":"uint256"}],"outputs":[],"stateMutability":"nonpayable"},{"type":"function","name":"name","inputs":[],"outputs":[{"name":"","type":"string","internalType":"string"}],"stateMutability":"view"},{"type":"function","name":"symbol","inputs":[],"outputs":[{"name":"","type":"string","internalType":"string"}],"stateMutability":"view"},{"type":"function","name":"totalSupply","inputs":[],"outputs":[{"name":"","type":"uint256","internalType":"uint256"}],"stateMutability":"view"},{"type":"function","name":"transfer","inputs":[{"name":"to","type":"address","internalType":"address"},{"name":"value","type":"uint256","internalType":"uint256"}],"outputs":[{"name":"","type":"bool","internalType":"bool"}],"stateMutability":"nonpayable"},{"type":"function","name":"transferFrom","inputs":[{"name":"from","type":"address","internalType":"address"},{"name":"to","type":"address","internalType":"address"},{"name":"value","type":"uint256","internalType":"uint256"}],"outputs":[{"name":"","type":"bool","internalType":"bool"}],"stateMutability":"nonpayable"},{"type":"function","name":"vault","inputs":[],"outputs":[{"name":"","type":"address","internalType":"address"}],"stateMutability":"view"},{"type":"function","name":"xStock","inputs":[],"outputs":[{"name":"","type":"address","internalType":"address"}],"stateMutability":"view"},{"type":"event","name":"Approval","inputs":[{"name":"owner","type":"address","indexed":true,"internalType":"address"},{"name":"spender","type":"address","indexed":true,"internalType":"address"},{"name":"value","type":"uint256","indexed":false,"internalType":"uint256"}],"anonymous":false},{"type":"event","name":"Transfer","inputs":[{"name":"from","type":"address","indexed":true,"internalType":"address"},{"name":"to","type":"address","indexed":true,"internalType":"address"},{"name":"value","type":"uint256","indexed":false,"internalType":"uint256"}],"anonymous":false},{"type":"error","name":"ERC20InsufficientAllowance","inputs":[{"name":"spender","type":"address","internalType":"address"},{"name":"allowance","type":"uint256","internalType":"uint256"},{"name":"needed","type":"uint256","internalType":"uint256"}]},{"type":"error","name":"ERC20InsufficientBalance","inputs":[{"name":"sender","type":"address","internalType":"address"},{"name":"balance","type":"uint256","internalType":"uint256"},{"name":"needed","type":"uint256","internalType":"uint256"}]},{"type":"error","name":"ERC20InvalidApprover","inputs":[{"name":"approver","type":"address","internalType":"address"}]},{"type":"error","name":"ERC20InvalidReceiver","inputs":[{"name":"receiver","type":"address","internalType":"address"}]},{"type":"error","name":"ERC20InvalidSender","inputs":[{"name":"sender","type":"address","internalType":"address"}]},{"type":"error","name":"ERC20InvalidSpender","inputs":[{"name":"spender","type":"address","internalType":"address"}]},{"type":"error","name":"OnlyVault","inputs":[]}],"bytecode":{"object":"0x60c06040523461036657610d2d803803806100198161036a565b9283398101906080818303126103665780516001600160401b038111610366578261004591830161038f565b602082015190926001600160401b0382116103665761006591830161038f565b9061007e6060610077604084016103e0565b92016103e0565b83519091906001600160401b03811161027757600354600181811c9116801561035c575b602082101461025957601f81116102f9575b50602094601f8211600114610296579481929394955f9261028b575b50508160011b915f199060031b1c1916176003555b82516001600160401b03811161027757600454600181811c9116801561026d575b602082101461025957601f81116101f6575b506020601f821160011461019357819293945f92610188575b50508160011b915f199060031b1c1916176004555b60805260a05260405161093890816103f5823960805181818160c0015281816101d70152818161040001526107cd015260a051818181610158015261081e0152f35b015190505f80610131565b601f1982169060045f52805f20915f5b8181106101de575095836001959697106101c6575b505050811b01600455610146565b01515f1960f88460031b161c191690555f80806101b8565b9192602060018192868b0151815501940192016101a3565b60045f527f8a35acfbc15ff81a39ae7d344fd709f28e8600b4aa8c65c6b64bfe7fe36bd19b601f830160051c8101916020841061024f575b601f0160051c01905b8181106102445750610118565b5f8155600101610237565b909150819061022e565b634e487b7160e01b5f52602260045260245ffd5b90607f1690610106565b634e487b7160e01b5f52604160045260245ffd5b015190505f806100d0565b601f1982169560035f52805f20915f5b8881106102e1575083600195969798106102c9575b505050811b016003556100e5565b01515f1960f88460031b161c191690555f80806102bb565b919260206001819286850151815501940192016102a6565b60035f527fc2575a0e9e593c00f959f8c92f12db2869c3395a3b0502d05e2516446f71f85b601f830160051c81019160208410610352575b601f0160051c01905b81811061034757506100b4565b5f815560010161033a565b9091508190610331565b90607f16906100a2565b5f80fd5b6040519190601f01601f191682016001600160401b0381118382101761027757604052565b81601f82011215610366578051906001600160401b038211610277576103be601f8301601f191660200161036a565b928284526020838301011161036657815f9260208093018386015e8301015290565b51906001600160a01b03821682036103665756fe6080806040526004361015610012575f80fd5b5f3560e01c90816306fdde031461064e57508063095ea7b3146105cc57806318160ddd146105af57806323b872dd146104d0578063313ce567146104b557806340c10f19146103e157806370a08231146103aa57806395d89b41146102a65780639dc29fac146101b8578063a9059cbb14610187578063c61aef9c14610143578063dd62ed3e146100f35763fbfa77cf146100ab575f80fd5b346100ef575f3660031901126100ef576040517f00000000000000000000000000000000000000000000000000000000000000006001600160a01b03168152602090f35b5f80fd5b346100ef5760403660031901126100ef5761010c610730565b610114610746565b6001600160a01b039182165f908152600160209081526040808320949093168252928352819020549051908152f35b346100ef575f3660031901126100ef576040517f00000000000000000000000000000000000000000000000000000000000000006001600160a01b03168152602090f35b346100ef5760403660031901126100ef576101ad6101a3610730565b6024359033610792565b602060405160018152f35b346100ef5760403660031901126100ef576101d1610730565b602435907f00000000000000000000000000000000000000000000000000000000000000006001600160a01b03163303610297576001600160a01b0316801561028457805f525f60205260405f205482811061026b576020835f947fddf252ad1be2c89b69c2b068fc378daa952ba7f163c4a11628f55a4df523b3ef938587528684520360408620558060025403600255604051908152a3005b9063391434e360e21b5f5260045260245260445260645ffd5b634b637e8f60e11b5f525f60045260245ffd5b638d1af8bd60e01b5f5260045ffd5b346100ef575f3660031901126100ef576040515f6004548060011c906001811680156103a0575b60208310811461038c57828552908115610368575060011461030a575b610306836102fa8185038261075c565b60405191829182610706565b0390f35b91905060045f527f8a35acfbc15ff81a39ae7d344fd709f28e8600b4aa8c65c6b64bfe7fe36bd19b915f905b80821061034e575090915081016020016102fa6102ea565b919260018160209254838588010152019101909291610336565b60ff191660208086019190915291151560051b840190910191506102fa90506102ea565b634e487b7160e01b5f52602260045260245ffd5b91607f16916102cd565b346100ef5760203660031901126100ef576001600160a01b036103cb610730565b165f525f602052602060405f2054604051908152f35b346100ef5760403660031901126100ef576103fa610730565b602435907f00000000000000000000000000000000000000000000000000000000000000006001600160a01b03163303610297576001600160a01b03169081156104a2576002549080820180921161048e5760207fddf252ad1be2c89b69c2b068fc378daa952ba7f163c4a11628f55a4df523b3ef915f9360025584845283825260408420818154019055604051908152a3005b634e487b7160e01b5f52601160045260245ffd5b63ec442f0560e01b5f525f60045260245ffd5b346100ef575f3660031901126100ef57602060405160128152f35b346100ef5760603660031901126100ef576104e9610730565b6104f1610746565b6001600160a01b0382165f818152600160209081526040808320338452909152902054909260443592915f19811061052f575b506101ad9350610792565b83811061059457841561058157331561056e576101ad945f52600160205260405f2060018060a01b0333165f526020528360405f209103905584610524565b634a1406b160e11b5f525f60045260245ffd5b63e602df0560e01b5f525f60045260245ffd5b8390637dc7a0d960e11b5f523360045260245260445260645ffd5b346100ef575f3660031901126100ef576020600254604051908152f35b346100ef5760403660031901126100ef576105e5610730565b602435903315610581576001600160a01b031690811561056e57335f52600160205260405f20825f526020528060405f20556040519081527f8c5be1e5ebec7d5bd14f71427d1e84f3dd0314c0f7b2291e5b200ac8c7c3b92560203392a3602060405160018152f35b346100ef575f3660031901126100ef575f6003548060011c906001811680156106fc575b60208310811461038c57828552908115610368575060011461069e57610306836102fa8185038261075c565b91905060035f527fc2575a0e9e593c00f959f8c92f12db2869c3395a3b0502d05e2516446f71f85b915f905b8082106106e2575090915081016020016102fa6102ea565b9192600181602092548385880101520191019092916106ca565b91607f1691610672565b602060409281835280519182918282860152018484015e5f828201840152601f01601f1916010190565b600435906001600160a01b03821682036100ef57565b602435906001600160a01b03821682036100ef57565b90601f8019910116810190811067ffffffffffffffff82111761077e57604052565b634e487b7160e01b5f52604160045260245ffd5b5f926001600160a01b03909116918215610284576001600160a01b03169283156104a2575f83815260208190526040808220548683529120547f00000000000000000000000000000000000000000000000000000000000000006001600160a01b03169190823b156100ef5760c45f928360405195869485936322971e8f60e11b855260018060a01b037f00000000000000000000000000000000000000000000000000000000000000001660048601528b602486015260448501528b606485015260848401528860a48401525af180156108f7576108e4575b508281528060205260408120548281106108ca5791604082827fddf252ad1be2c89b69c2b068fc378daa952ba7f163c4a11628f55a4df523b3ef958760209652828652038282205586815280845220818154019055604051908152a3565b916064928463391434e360e21b8452600452602452604452fd5b6108f091505f9061075c565b5f5f61086c565b6040513d5f823e3d90fdfea2646970667358221220922f9fdff187b8a31c7103fcbe5f5b7f81ccc5b77d5d0d9bdd8dcba5c8261c1464736f6c634300081c0033","linkReferences":{}},"methodIdentifiers":{"allowance(address,address)":"dd62ed3e","approve(address,uint256)":"095ea7b3","balanceOf(address)":"70a08231","burn(address,uint256)":"9dc29fac","decimals()":"313ce567","mint(address,uint256)":"40c10f19","name()":"06fdde03","symbol()":"95d89b41","totalSupply()":"18160ddd","transfer(address,uint256)":"a9059cbb","transferFrom(address,address,uint256)":"23b872dd","vault()":"fbfa77cf","xStock()":"c61aef9c"},"id":47}