{"abi":[{"type":"constructor","inputs":[{"name":"vault_","type":"address","internalType":"address"},{"name":"usdc_","type":"address","internalType":"address"},{"name":"minBidIncrement_","type":"uint256","internalType":"uint256"}],"stateMutability":"nonpayable"},{"type":"function","name":"activeListingByDxToken","inputs":[{"name":"","type":"address","internalType":"address"}],"outputs":[{"name":"","type":"uint256","internalType":"uint256"}],"stateMutability":"view"},{"type":"function","name":"cancelAuction","inputs":[{"name":"listingId","type":"uint256","internalType":"uint256"}],"outputs":[],"stateMutability":"nonpayable"},{"type":"function","name":"claimAndDistribute","inputs":[{"name":"listingId","type":"uint256","internalType":"uint256"}],"outputs":[{"name":"claimed","type":"uint256","internalType":"uint256"}],"stateMutability":"nonpayable"},{"type":"function","name":"finalizeAuction","inputs":[{"name":"listingId","type":"uint256","internalType":"uint256"}],"outputs":[],"stateMutability":"nonpayable"},{"type":"function","name":"getListing","inputs":[{"name":"listingId","type":"uint256","internalType":"uint256"}],"outputs":[{"name":"","type":"tuple","internalType":"struct DxLeaseEscrow.Listing","components":[{"name":"seller","type":"address","internalType":"address"},{"name":"dxToken","type":"address","internalType":"address"},{"name":"xStock","type":"address","internalType":"address"},{"name":"amount","type":"uint256","internalType":"uint256"},{"name":"basePrice","type":"uint256","internalType":"uint256"},{"name":"auctionEnd","type":"uint64","internalType":"uint64"},{"name":"leaseDuration","type":"uint64","internalType":"uint64"},{"name":"leaseStart","type":"uint64","internalType":"uint64"},{"name":"leaseEnd","type":"uint64","internalType":"uint64"},{"name":"activeLessee","type":"address","internalType":"address"},{"name":"highestBidder","type":"address","internalType":"address"},{"name":"highestBid","type":"uint256","internalType":"uint256"},{"name":"status","type":"uint8","internalType":"enum DxLeaseEscrow.ListingStatus"}]}],"stateMutability":"view"},{"type":"function","name":"minBidIncrement","inputs":[],"outputs":[{"name":"","type":"uint256","internalType":"uint256"}],"stateMutability":"view"},{"type":"function","name":"nextListingId","inputs":[],"outputs":[{"name":"","type":"uint256","internalType":"uint256"}],"stateMutability":"view"},{"type":"function","name":"openAuction","inputs":[{"name":"dxToken","type":"address","internalType":"address"},{"name":"amount","type":"uint256","internalType":"uint256"},{"name":"basePrice","type":"uint256","internalType":"uint256"},{"name":"auctionDuration","type":"uint256","internalType":"uint256"},{"name":"leaseDuration","type":"uint256","internalType":"uint256"}],"outputs":[{"name":"listingId","type":"uint256","internalType":"uint256"}],"stateMutability":"nonpayable"},{"type":"function","name":"owner","inputs":[],"outputs":[{"name":"","type":"address","internalType":"address"}],"stateMutability":"view"},{"type":"function","name":"pause","inputs":[],"outputs":[],"stateMutability":"nonpayable"},{"type":"function","name":"paused","inputs":[],"outputs":[{"name":"","type":"bool","internalType":"bool"}],"stateMutability":"view"},{"type":"function","name":"placeBid","inputs":[{"name":"listingId","type":"uint256","internalType":"uint256"},{"name":"amount","type":"uint256","internalType":"uint256"}],"outputs":[],"stateMutability":"nonpayable"},{"type":"function","name":"reclaimDx","inputs":[{"name":"listingId","type":"uint256","internalType":"uint256"}],"outputs":[],"stateMutability":"nonpayable"},{"type":"function","name":"refundableBalance","inputs":[{"name":"","type":"address","internalType":"address"}],"outputs":[{"name":"","type":"uint256","internalType":"uint256"}],"stateMutability":"view"},{"type":"function","name":"renounceOwnership","inputs":[],"outputs":[],"stateMutability":"nonpayable"},{"type":"function","name":"transferOwnership","inputs":[{"name":"newOwner","type":"address","internalType":"address"}],"outputs":[],"stateMutability":"nonpayable"},{"type":"function","name":"unpause","inputs":[],"outputs":[],"stateMutability":"nonpayable"},{"type":"function","name":"usdc","inputs":[],"outputs":[{"name":"","type":"address","internalType":"contract IERC20"}],"stateMutability":"view"},{"type":"function","name":"vault","inputs":[],"outputs":[{"name":"","type":"address","internalType":"contract IXStreamVault"}],"stateMutability":"view"},{"type":"function","name":"withdrawRefund","inputs":[],"outputs":[],"stateMutability":"nonpayable"},{"type":"event","name":"AuctionCancelled","inputs":[{"name":"listingId","type":"uint256","indexed":true,"internalType":"uint256"}],"anonymous":false},{"type":"event","name":"AuctionExpired","inputs":[{"name":"listingId","type":"uint256","indexed":true,"internalType":"uint256"}],"anonymous":false},{"type":"event","name":"AuctionFinalized","inputs":[{"name":"listingId","type":"uint256","indexed":true,"internalType":"uint256"},{"name":"seller","type":"address","indexed":true,"internalType":"address"},{"name":"winner","type":"address","indexed":true,"internalType":"address"},{"name":"winningBid","type":"uint256","indexed":false,"internalType":"uint256"},{"name":"leaseStart","type":"uint256","indexed":false,"internalType":"uint256"},{"name":"leaseEnd","type":"uint256","indexed":false,"internalType":"uint256"}],"anonymous":false},{"type":"event","name":"AuctionOpened","inputs":[{"name":"listingId","type":"uint256","indexed":true,"internalType":"uint256"},{"name":"seller","type":"address","indexed":true,"internalType":"address"},{"name":"dxToken","type":"address","indexed":true,"internalType":"address"},{"name":"xStock","type":"address","indexed":false,"internalType":"address"},{"name":"amount","type":"uint256","indexed":false,"internalType":"uint256"},{"name":"basePrice","type":"uint256","indexed":false,"internalType":"uint256"},{"name":"auctionEnd","type":"uint256","indexed":false,"internalType":"uint256"},{"name":"leaseDuration","type":"uint256","indexed":false,"internalType":"uint256"}],"anonymous":false},{"type":"event","name":"BidPlaced","inputs":[{"name":"listingId","type":"uint256","indexed":true,"internalType":"uint256"},{"name":"bidder","type":"address","indexed":true,"internalType":"address"},{"name":"amount","type":"uint256","indexed":false,"internalType":"uint256"}],"anonymous":false},{"type":"event","name":"DividendDistributed","inputs":[{"name":"listingId","type":"uint256","indexed":true,"internalType":"uint256"},{"name":"beneficiary","type":"address","indexed":true,"internalType":"address"},{"name":"amount","type":"uint256","indexed":false,"internalType":"uint256"}],"anonymous":false},{"type":"event","name":"DxReclaimed","inputs":[{"name":"listingId","type":"uint256","indexed":true,"internalType":"uint256"},{"name":"seller","type":"address","indexed":true,"internalType":"address"},{"name":"amount","type":"uint256","indexed":false,"internalType":"uint256"}],"anonymous":false},{"type":"event","name":"OwnershipTransferred","inputs":[{"name":"previousOwner","type":"address","indexed":true,"internalType":"address"},{"name":"newOwner","type":"address","indexed":true,"internalType":"address"}],"anonymous":false},{"type":"event","name":"Paused","inputs":[{"name":"account","type":"address","indexed":false,"internalType":"address"}],"anonymous":false},{"type":"event","name":"RefundWithdrawn","inputs":[{"name":"bidder","type":"address","indexed":true,"internalType":"address"},{"name":"amount","type":"uint256","indexed":false,"internalType":"uint256"}],"anonymous":false},{"type":"event","name":"Unpaused","inputs":[{"name":"account","type":"address","indexed":false,"internalType":"address"}],"anonymous":false},{"type":"error","name":"AuctionAlreadyEnded","inputs":[]},{"type":"error","name":"AuctionStillActive","inputs":[]},{"type":"error","name":"BidTooLow","inputs":[]},{"type":"error","name":"CannotCancelAfterBid","inputs":[]},{"type":"error","name":"EnforcedPause","inputs":[]},{"type":"error","name":"ExistingListingForDxToken","inputs":[]},{"type":"error","name":"ExpectedPause","inputs":[]},{"type":"error","name":"InvalidAmount","inputs":[]},{"type":"error","name":"InvalidDuration","inputs":[]},{"type":"error","name":"ListingNotActive","inputs":[]},{"type":"error","name":"ListingNotFound","inputs":[]},{"type":"error","name":"ListingNotOpen","inputs":[]},{"type":"error","name":"ListingNotReclaimable","inputs":[]},{"type":"error","name":"NoRefundAvailable","inputs":[]},{"type":"error","name":"NotSeller","inputs":[]},{"type":"error","name":"OwnableInvalidOwner","inputs":[{"name":"owner","type":"address","internalType":"address"}]},{"type":"error","name":"OwnableUnauthorizedAccount","inputs":[{"name":"account","type":"address","internalType":"address"}]},{"type":"error","name":"ReentrancyGuardReentrantCall","inputs":[]},{"type":"error","name":"SafeERC20FailedOperation","inputs":[{"name":"token","type":"address","internalType":"address"}]},{"type":"error","name":"UnsupportedDxToken","inputs":[]}],"bytecode":{"object":"0x60e03461014957601f61183e38819003918201601f19168301916001600160401b0383118484101761014d578084926060946040528339810103126101495761004781610161565b90604061005660208301610161565b910151903315610136575f8054336001600160a01b0319821681178355604051959290916001600160a01b0316907f8be0079c531659141344cd1fd0a4f28419497f9722a3daafe3b4186f6b6457e09080a360017f9b779b17422d0df92223018b32b4d1fa46e071723d6817e2486d003becc55f0081905580556001600160a01b039081166080521660a05260c0526116c89081610176823960805181818161010a015281816102710152610988015260a051818181610bd001528181610d4d01528181610df60152611376015260c051818181610c930152610d930152f35b631e4fbdf760e01b5f525f60045260245ffd5b5f80fd5b634e487b7160e01b5f52604160045260245ffd5b51906001600160a01b03821682036101495756fe60806040526004361015610011575f80fd5b5f3560e01c806305d76b1f1461107c5780631012b69d14611044578063107a274a14610e68578063110f887414610db6578063335b115e14610d7c5780633e413bee14610d385780633f4ba83a14610ccc57806357c90de514610b455780635c975abb14610b215780635ee4622c146108d2578063715018a61461087b5780638456cb591461081b5780638da5cb5b146107f457806396b5a755146106e5578063aaccf1ec146106c8578063b03d36cd14610690578063b0c4267f14610201578063e8083863146101c2578063f2fde38b1461013d5763fbfa77cf146100f5575f80fd5b34610139575f366003190112610139576040517f00000000000000000000000000000000000000000000000000000000000000006001600160a01b03168152602090f35b5f80fd5b346101395760203660031901126101395761015661117b565b61015e61155b565b6001600160a01b031680156101af575f80546001600160a01b03198116831782556001600160a01b0316907f8be0079c531659141344cd1fd0a4f28419497f9722a3daafe3b4186f6b6457e09080a3005b631e4fbdf760e01b5f525f60045260245ffd5b34610139576020366003190112610139576101db611581565b6101e361141b565b6101ee60043561124e565b60015f5160206116735f395f51905f5255005b346101395760a03660031901126101395761021a61117b565b610222611581565b61022a61141b565b602435158015610686575b6106775760643515801561066d575b61065e57604051631944e2a960e01b81526001600160a01b038281166004830152602090829060249082907f0000000000000000000000000000000000000000000000000000000000000000165afa908115610653575f91610611575b506001600160a01b03811615610602576001600160a01b0382165f908152600460205260409020546105f357600154905f1982146105df576001820160015560018060a01b0383165f5260046020528160405f20556001600160401b0361030a60643542611241565b16926040519361031985611191565b33855260018060a01b038216602086015260018060a01b03831660408601526024356060860152604435608086015260a08501526001600160401b036084351660c08501525f60e08501525f6101008501525f6101208501525f6101408501525f6101608501526001610180850152825f526002602052610180600960405f2060018060a01b0360018060a01b03885116166001600160601b0360a01b82541617815560018060a01b03602088015116600182019060018060a01b03166001600160601b0360a01b82541617905560018060a01b03604088015116600282019060018060a01b03166001600160601b0360a01b82541617905560608701516003820155608087015160048201556104cf600582016001600160401b0360a08a0151168154906fffffffffffffffff000000000000000060c08c015160401b16916fffffffffffffffffffffffffffffffff1916171781556104a96001600160401b0360e08b01511682908154906001600160401b0360801b9060801b16906001600160401b0360801b1916179055565b61010089015181546001600160c01b031660c09190911b6001600160c01b031916179055565b610120870151600682810180546001600160a01b039384166001600160a01b0319918216179091556101408a015160078501805491909416911617909155610160880151600883015592909601519501908510156105cb5760209460ff8019835416911617905561054c602435303360018060a01b03851661159e565b61055860643542611241565b6040519260018060a01b031683526024358584015260443560408401526060830152608435608083015260018060a01b031690827f127d8e2e7e18d5b4c9fa842c902848e6c74cf940bc09b8c8ac89d9bae30c04f760a03393a460015f5160206116735f395f51905f5255604051908152f35b634e487b7160e01b5f52602160045260245ffd5b634e487b7160e01b5f52601160045260245ffd5b636e87dd5b60e11b5f5260045ffd5b63062be77960e31b5f5260045ffd5b90506020813d60201161064b575b8161062c602093836111c1565b8101031261013957516001600160a01b038116810361013957826102a1565b3d915061061f565b6040513d5f823e3d90fd5b637616640160e01b5f5260045ffd5b5060843515610244565b63162908e360e11b5f5260045ffd5b5060443515610235565b34610139576020366003190112610139576001600160a01b036106b161117b565b165f526003602052602060405f2054604051908152f35b34610139575f366003190112610139576020600154604051908152f35b346101395760203660031901126101395760043561070161141b565b61070a81611453565b80546001600160a01b031633036107e557600981019060ff82541660068110156105cb576001036107d65760078101546001600160a01b03166107c757815460ff191660049081179092556001810180546001600160a01b039081165f9081526020949094526040842093909355548154600390920154610790939092811691166114da565b7f2809c7e17bf978fbc7194c0a694b638c4215e9140cacc6c38ca36010b45697df5f80a260015f5160206116735f395f51905f5255005b63c54ea8a960e01b5f5260045ffd5b633461e94960e11b5f5260045ffd5b635ec8235160e01b5f5260045ffd5b34610139575f366003190112610139575f546040516001600160a01b039091168152602090f35b34610139575f3660031901126101395761083361155b565b61083b611581565b5f805460ff60a01b1916600160a01b1790556040513381527f62e78cea01bee320cd4e420270b5ea74000d11b0c9f74754ebdbfc544b05a25890602090a1005b34610139575f3660031901126101395761089361155b565b5f80546001600160a01b0319811682556001600160a01b03167f8be0079c531659141344cd1fd0a4f28419497f9722a3daafe3b4186f6b6457e08280a3005b34610139576020366003190112610139576004356108ee61141b565b6108f781611453565b906109028282611470565b60ff60098301541660068110156105cb5760058114908115610b16575b50610b0757600261092f83611607565b920180546040516370a0823160e01b81523060048201529391906001600160a01b0316602085602481845afa948515610653575f95610ad3575b50604051630afbf02f60e11b815260048101919091526020816024815f7f00000000000000000000000000000000000000000000000000000000000000006001600160a01b03165af1801561065357610aa4575b50546040516370a0823160e01b815230600482015292906001600160a01b0316602084602481845afa938415610653575f94610a70575b50848403938085116105df57602095859103610a26575b859060015f5160206116735f395f51905f5255604051908152f35b83610a30926114da565b6040518381526001600160a01b03909216917f440f00d6ddb4447e53daa65579cd84580f48cbd6ee92ab79f7171b836c38204c908590a382808083610a0b565b9093506020813d602011610a9c575b81610a8c602093836111c1565b81010312610139575192856109f4565b3d9150610a7f565b6020813d602011610acb575b81610abd602093836111c1565b8101031261013957516109bd565b3d9150610ab0565b9094506020813d602011610aff575b81610aef602093836111c1565b8101031261013957519385610969565b3d9150610ae2565b6366cb03e960e01b5f5260045ffd5b60049150148361091f565b34610139575f36600319011261013957602060ff5f5460a01c166040519015158152f35b3461013957604036600319011261013957602435600435610b64611581565b610b6c61141b565b610b7581611453565b610b7f8183611470565b60ff60098201541660068110156105cb576001036107d6576001600160401b03600582015416421015610cbd5760088101805480610c8d575060048201545b8410610c7e5760078492610bf48430337f000000000000000000000000000000000000000000000000000000000000000061159e565b0180546001600160a01b031680610c5d575b5080546001600160a01b03191633908117909155919055604051928352917f0e54eff26401bf69b81b26f60bd85ef47f5d85275c1d268d84f68d6897431c4790602090a360015f5160206116735f395f51905f5255005b8254905f526003602052610c7660405f20918254611241565b905585610c06565b635069375b60e11b5f5260045ffd5b610cb8907f000000000000000000000000000000000000000000000000000000000000000090611241565b610bbe565b63d02e774d60e01b5f5260045ffd5b34610139575f36600319011261013957610ce461155b565b5f5460ff8160a01c1615610d295760ff60a01b19165f556040513381527f5db9ee0a495bf2e6ff9c91a7834c1ba4fdd244a5e8aa4e537bd38aeae4b073aa90602090a1005b638dfc202b60e01b5f5260045ffd5b34610139575f366003190112610139576040517f00000000000000000000000000000000000000000000000000000000000000006001600160a01b03168152602090f35b34610139575f3660031901126101395760206040517f00000000000000000000000000000000000000000000000000000000000000008152f35b34610139575f36600319011261013957610dce61141b565b335f52600360205260405f20548015610e5957335f5260036020525f6040812055610e1a81337f00000000000000000000000000000000000000000000000000000000000000006114da565b6040519081527f3d97f39b86d061200a7834082f5926e58ec10fd85a9d6930f497729d5e6cc35c60203392a260015f5160206116735f395f51905f5255005b63e49c14cb60e01b5f5260045ffd5b3461013957602036600319011261013957610e816111e2565b50610e8a6111e2565b506004355f52600260205260405f2060405190610ea682611191565b60018060a01b0381541682528160018060a01b03600183015416916020820192835260018060a01b03600282015416604083019081526003820154606084019081526004830154906080850191825260058401549160a086016001600160401b038416815260c08701916001600160401b038560401c16835260e08801936001600160401b038660801c16855261010089019560c01c865260018060a01b03600689015416966101208a0197885260ff600960018060a01b0360078c0154169a6101408d019b8c5261016060088201549d019c8d520154169a6101808d019b60068110156105cb578c528c516001600160a01b03161561103557604080519d516001600160a01b039081168f529151821660208f015291518116918d0191909152905160608c0152905160808b015290516001600160401b0390811660a08b01529151821660c08a01529151811660e089015291519091166101008701529051811661012086015290511661014084015251610160830152519060068210156105cb576101a091610180820152f35b630fc87cc760e31b5f5260045ffd5b34610139576020366003190112610139576001600160a01b0361106561117b565b165f526004602052602060405f2054604051908152f35b346101395760203660031901126101395760043561109861141b565b6110a181611453565b906110ac8282611470565b81546001600160a01b031633036107e5576009820160ff81541660068110156105cb5760030361116c57805460ff191660051790556001820180546001600160a01b039081165f9081526004602090815260408220919091559154845460038601805490967f41b14912d591e68ea81971c5d9b427b56322bcc55b2fcf5a339b8994f81a0c8a9594909361114393821691166114da565b5493546040519081526001600160a01b0390941693a360015f5160206116735f395f51905f5255005b6322c3bfcd60e21b5f5260045ffd5b600435906001600160a01b038216820361013957565b6101a081019081106001600160401b038211176111ad57604052565b634e487b7160e01b5f52604160045260245ffd5b90601f801991011681019081106001600160401b038211176111ad57604052565b604051906111ef82611191565b5f610180838281528260208201528260408201528260608201528260808201528260a08201528260c08201528260e0820152826101008201528261012082015282610140820152826101608201520152565b919082018092116105df57565b61125781611453565b906112628282611470565b600982019060ff82541660068110156105cb576001036107d65760058301916001600160401b03835416421061140c576007840180549091906001600160a01b0316156113d657805460ff19166002179055546006840180546001600160a01b0319166001600160a01b0392909216919091178155825467ffffffffffffffff60801b19164260801b67ffffffffffffffff60801b16178355917f09d19bc6c9a71e6ce2f33285073bb069912c80a714bf42bcaddc9247716ffb489060609061135b6001600160401b0361133c81845460401c1642611241565b83546001600160c01b0316911660c01b6001600160c01b031916178255565b855460088701805490979161139a91906001600160a01b03167f00000000000000000000000000000000000000000000000000000000000000006114da565b60018060a01b039054169460018060a01b03905416955490546040519182526001600160401b038160801c16602083015260c01c6040820152a4565b805460ff191660031790555091507fb5e6cbc8a13a6bedcfd3d4a24613565c9c6d87e4d62d6e92135b8729cd38916190505f80a2565b630ca00c6160e01b5f5260045ffd5b60025f5160206116735f395f51905f5254146114445760025f5160206116735f395f51905f5255565b633ee5aeb560e01b5f5260045ffd5b5f52600260205260405f209060018060a01b038254161561103557565b90600981019060ff82541660068110156105cb5760021490816114c8575b50611497575050565b805460ff191660031790557fb5e6cbc8a13a6bedcfd3d4a24613565c9c6d87e4d62d6e92135b8729cd3891615f80a2565b60059150015460c01c4210155f61148e565b916040519163a9059cbb60e01b5f5260018060a01b031660045260245260205f60448180865af19060015f511482161561153a575b6040521561151a5750565b635274afe760e01b5f9081526001600160a01b0391909116600452602490fd5b90600181151661155257823b15153d1516169061150f565b503d5f823e3d90fd5b5f546001600160a01b0316330361156e57565b63118cdaa760e01b5f523360045260245ffd5b60ff5f5460a01c1661158f57565b63d93c066560e01b5f5260045ffd5b6040516323b872dd60e01b5f9081526001600160a01b039384166004529290931660245260449390935260209060648180865af19060015f51148216156115ef575b6040525f6060521561151a5750565b90600181151661155257823b15153d151616906115e0565b60ff60098201541660068110156105cb5760021480611658575b80611648575b61163857546001600160a01b031690565b600601546001600160a01b031690565b50600581015460c01c4210611627565b506001600160401b03600582015460801c1642101561162156fe9b779b17422d0df92223018b32b4d1fa46e071723d6817e2486d003becc55f00a2646970667358221220f14297ac4a3b968d68beb5db54a6b8b0173c85882548b63f23a800974ccd3c9b64736f6c634300081c0033","linkReferences":{}},"methodIdentifiers":{"activeListingByDxToken(address)":"1012b69d","cancelAuction(uint256)":"96b5a755","claimAndDistribute(uint256)":"5ee4622c","finalizeAuction(uint256)":"e8083863","getListing(uint256)":"107a274a","minBidIncrement()":"335b115e","nextListingId()":"aaccf1ec","openAuction(address,uint256,uint256,uint256,uint256)":"b0c4267f","owner()":"8da5cb5b","pause()":"8456cb59","paused()":"5c975abb","placeBid(uint256,uint256)":"57c90de5","reclaimDx(uint256)":"05d76b1f","refundableBalance(address)":"b03d36cd","renounceOwnership()":"715018a6","transferOwnership(address)":"f2fde38b","unpause()":"3f4ba83a","usdc()":"3e413bee","vault()":"fbfa77cf","withdrawRefund()":"110f8874"},"id":39}