{"abi":[{"type":"constructor","inputs":[{"name":"name_","type":"string","internalType":"string"},{"name":"symbol_","type":"string","internalType":"string"}],"stateMutability":"nonpayable"},{"type":"function","name":"allowance","inputs":[{"name":"owner","type":"address","internalType":"address"},{"name":"spender","type":"address","internalType":"address"}],"outputs":[{"name":"","type":"uint256","internalType":"uint256"}],"stateMutability":"view"},{"type":"function","name":"approve","inputs":[{"name":"spender","type":"address","internalType":"address"},{"name":"value","type":"uint256","internalType":"uint256"}],"outputs":[{"name":"","type":"bool","internalType":"bool"}],"stateMutability":"nonpayable"},{"type":"function","name":"balanceOf","inputs":[{"name":"account","type":"address","internalType":"address"}],"outputs":[{"name":"","type":"uint256","internalType":"uint256"}],"stateMutability":"view"},{"type":"function","name":"decimals","inputs":[],"outputs":[{"name":"","type":"uint8","internalType":"uint8"}],"stateMutability":"view"},{"type":"function","name":"mint","inputs":[{"name":"to","type":"address","internalType":"address"},{"name":"amount","type":"uint256","internalType":"uint256"}],"outputs":[],"stateMutability":"nonpayable"},{"type":"function","name":"multiplier","inputs":[],"outputs":[{"name":"","type":"uint256","internalType":"uint256"}],"stateMutability":"view"},{"type":"function","name":"name","inputs":[],"outputs":[{"name":"","type":"string","internalType":"string"}],"stateMutability":"view"},{"type":"function","name":"setMultiplier","inputs":[{"name":"newMultiplier","type":"uint256","internalType":"uint256"}],"outputs":[],"stateMutability":"nonpayable"},{"type":"function","name":"symbol","inputs":[],"outputs":[{"name":"","type":"string","internalType":"string"}],"stateMutability":"view"},{"type":"function","name":"totalSupply","inputs":[],"outputs":[{"name":"","type":"uint256","internalType":"uint256"}],"stateMutability":"view"},{"type":"function","name":"transfer","inputs":[{"name":"to","type":"address","internalType":"address"},{"name":"value","type":"uint256","internalType":"uint256"}],"outputs":[{"name":"","type":"bool","internalType":"bool"}],"stateMutability":"nonpayable"},{"type":"function","name":"transferFrom","inputs":[{"name":"from","type":"address","internalType":"address"},{"name":"to","type":"address","internalType":"address"},{"name":"value","type":"uint256","internalType":"uint256"}],"outputs":[{"name":"","type":"bool","internalType":"bool"}],"stateMutability":"nonpayable"},{"type":"event","name":"Approval","inputs":[{"name":"owner","type":"address","indexed":true,"internalType":"address"},{"name":"spender","type":"address","indexed":true,"internalType":"address"},{"name":"value","type":"uint256","indexed":false,"internalType":"uint256"}],"anonymous":false},{"type":"event","name":"Transfer","inputs":[{"name":"from","type":"address","indexed":true,"internalType":"address"},{"name":"to","type":"address","indexed":true,"internalType":"address"},{"name":"value","type":"uint256","indexed":false,"internalType":"uint256"}],"anonymous":false},{"type":"error","name":"ERC20InsufficientAllowance","inputs":[{"name":"spender","type":"address","internalType":"address"},{"name":"allowance","type":"uint256","internalType":"uint256"},{"name":"needed","type":"uint256","internalType":"uint256"}]},{"type":"error","name":"ERC20InsufficientBalance","inputs":[{"name":"sender","type":"address","internalType":"address"},{"name":"balance","type":"uint256","internalType":"uint256"},{"name":"needed","type":"uint256","internalType":"uint256"}]},{"type":"error","name":"ERC20InvalidApprover","inputs":[{"name":"approver","type":"address","internalType":"address"}]},{"type":"error","name":"ERC20InvalidReceiver","inputs":[{"name":"receiver","type":"address","internalType":"address"}]},{"type":"error","name":"ERC20InvalidSender","inputs":[{"name":"sender","type":"address","internalType":"address"}]},{"type":"error","name":"ERC20InvalidSpender","inputs":[{"name":"spender","type":"address","internalType":"address"}]}],"bytecode":{"object":"0x60806040523461031c57610a848038038061001981610320565b92833981019060408183031261031c5780516001600160401b03811161031c5782610045918301610345565b60208201519092906001600160401b03811161031c576100659201610345565b81516001600160401b03811161022f57600354600181811c91168015610312575b602082101461021157601f81116102af575b50602092601f821160011461024e57928192935f92610243575b50508160011b915f199060031b1c1916176003555b80516001600160401b03811161022f57600454600181811c91168015610225575b602082101461021157601f81116101ae575b50602091601f821160011461014e579181925f92610143575b50508160011b915f199060031b1c1916176004555b670de0b6b3a76400006005556040516106ed90816103978239f35b015190505f80610113565b601f1982169260045f52805f20915f5b8581106101965750836001951061017e575b505050811b01600455610128565b01515f1960f88460031b161c191690555f8080610170565b9192602060018192868501518155019401920161015e565b60045f527f8a35acfbc15ff81a39ae7d344fd709f28e8600b4aa8c65c6b64bfe7fe36bd19b601f830160051c81019160208410610207575b601f0160051c01905b8181106101fc57506100fa565b5f81556001016101ef565b90915081906101e6565b634e487b7160e01b5f52602260045260245ffd5b90607f16906100e8565b634e487b7160e01b5f52604160045260245ffd5b015190505f806100b2565b601f1982169360035f52805f20915f5b868110610297575083600195961061027f575b505050811b016003556100c7565b01515f1960f88460031b161c191690555f8080610271565b9192602060018192868501518155019401920161025e565b60035f527fc2575a0e9e593c00f959f8c92f12db2869c3395a3b0502d05e2516446f71f85b601f830160051c81019160208410610308575b601f0160051c01905b8181106102fd5750610098565b5f81556001016102f0565b90915081906102e7565b90607f1690610086565b5f80fd5b6040519190601f01601f191682016001600160401b0381118382101761022f57604052565b81601f8201121561031c578051906001600160401b03821161022f57610374601f8301601f1916602001610320565b928284526020838301011161031c57815f9260208093018386015e830101529056fe6080806040526004361015610012575f80fd5b5f3560e01c90816306fdde03146104e857508063095ea7b31461046657806318160ddd146104495780631b3ed7221461042c57806323b872dd1461034d578063313ce5671461033257806340c10f1914610290578063641579a61461027757806370a082311461024057806395d89b4114610125578063a9059cbb146100f45763dd62ed3e146100a0575f80fd5b346100f05760403660031901126100f0576100b96105e1565b6100c16105f7565b6001600160a01b039182165f908152600160209081526040808320949093168252928352819020549051908152f35b5f80fd5b346100f05760403660031901126100f05761011a6101106105e1565b602435903361060d565b602060405160018152f35b346100f0575f3660031901126100f0576040515f6004548060011c90600181168015610236575b6020831081146102225782855290811561020657506001146101b1575b50819003601f01601f191681019067ffffffffffffffff82118183101761019d57610199829182604052826105b7565b0390f35b634e487b7160e01b5f52604160045260245ffd5b905060045f527f8a35acfbc15ff81a39ae7d344fd709f28e8600b4aa8c65c6b64bfe7fe36bd19b5f905b8282106101f057506020915082010182610169565b60018160209254838588010152019101906101db565b90506020925060ff191682840152151560051b82010182610169565b634e487b7160e01b5f52602260045260245ffd5b91607f169161014c565b346100f05760203660031901126100f0576001600160a01b036102616105e1565b165f525f602052602060405f2054604051908152f35b346100f05760203660031901126100f057600435600555005b346100f05760403660031901126100f0576102a96105e1565b6001600160a01b0316602435811561031f576002549080820180921161030b5760207fddf252ad1be2c89b69c2b068fc378daa952ba7f163c4a11628f55a4df523b3ef915f9360025584845283825260408420818154019055604051908152a3005b634e487b7160e01b5f52601160045260245ffd5b63ec442f0560e01b5f525f60045260245ffd5b346100f0575f3660031901126100f057602060405160128152f35b346100f05760603660031901126100f0576103666105e1565b61036e6105f7565b6001600160a01b0382165f818152600160209081526040808320338452909152902054909260443592915f1981106103ac575b5061011a935061060d565b8381106104115784156103fe5733156103eb5761011a945f52600160205260405f2060018060a01b0333165f526020528360405f2091039055846103a1565b634a1406b160e11b5f525f60045260245ffd5b63e602df0560e01b5f525f60045260245ffd5b8390637dc7a0d960e11b5f523360045260245260445260645ffd5b346100f0575f3660031901126100f0576020600554604051908152f35b346100f0575f3660031901126100f0576020600254604051908152f35b346100f05760403660031901126100f05761047f6105e1565b6024359033156103fe576001600160a01b03169081156103eb57335f52600160205260405f20825f526020528060405f20556040519081527f8c5be1e5ebec7d5bd14f71427d1e84f3dd0314c0f7b2291e5b200ac8c7c3b92560203392a3602060405160018152f35b346100f0575f3660031901126100f0575f6003548060011c906001811680156105ad575b6020831081146102225782855290811561020657506001146105585750819003601f01601f191681019067ffffffffffffffff82118183101761019d57610199829182604052826105b7565b905060035f527fc2575a0e9e593c00f959f8c92f12db2869c3395a3b0502d05e2516446f71f85b5f905b82821061059757506020915082010182610169565b6001816020925483858801015201910190610582565b91607f169161050c565b602060409281835280519182918282860152018484015e5f828201840152601f01601f1916010190565b600435906001600160a01b03821682036100f057565b602435906001600160a01b03821682036100f057565b6001600160a01b03169081156106a4576001600160a01b031691821561031f57815f525f60205260405f205481811061068b57817fddf252ad1be2c89b69c2b068fc378daa952ba7f163c4a11628f55a4df523b3ef92602092855f525f84520360405f2055845f525f825260405f20818154019055604051908152a3565b8263391434e360e21b5f5260045260245260445260645ffd5b634b637e8f60e11b5f525f60045260245ffdfea2646970667358221220115d206eb3d123c637e7a1d524f8a01f70f369a2d25bf4a1087941a5d1d42ed264736f6c634300081c0033","linkReferences":{}},"methodIdentifiers":{"allowance(address,address)":"dd62ed3e","approve(address,uint256)":"095ea7b3","balanceOf(address)":"70a08231","decimals()":"313ce567","mint(address,uint256)":"40c10f19","multiplier()":"1b3ed722","name()":"06fdde03","setMultiplier(uint256)":"641579a6","symbol()":"95d89b41","totalSupply()":"18160ddd","transfer(address,uint256)":"a9059cbb","transferFrom(address,address,uint256)":"23b872dd"},"id":55}