{"abi":[{"type":"constructor","inputs":[{"name":"pythContract_","type":"address","internalType":"address"},{"name":"maxStaleness_","type":"uint256","internalType":"uint256"}],"stateMutability":"nonpayable"},{"type":"function","name":"getPrice","inputs":[{"name":"feedId","type":"bytes32","internalType":"bytes32"},{"name":"updateData","type":"bytes[]","internalType":"bytes[]"}],"outputs":[{"name":"price","type":"uint256","internalType":"uint256"},{"name":"publishTime","type":"uint256","internalType":"uint256"}],"stateMutability":"payable"},{"type":"function","name":"getPriceCached","inputs":[{"name":"feedId","type":"bytes32","internalType":"bytes32"}],"outputs":[{"name":"price","type":"uint256","internalType":"uint256"},{"name":"publishTime","type":"uint256","internalType":"uint256"}],"stateMutability":"view"},{"type":"function","name":"getUpdateFee","inputs":[{"name":"updateData","type":"bytes[]","internalType":"bytes[]"}],"outputs":[{"name":"","type":"uint256","internalType":"uint256"}],"stateMutability":"view"},{"type":"function","name":"maxStaleness","inputs":[],"outputs":[{"name":"","type":"uint256","internalType":"uint256"}],"stateMutability":"view"},{"type":"function","name":"normalizePythPrice","inputs":[{"name":"price_","type":"int64","internalType":"int64"},{"name":"expo_","type":"int32","internalType":"int32"}],"outputs":[{"name":"","type":"uint256","internalType":"uint256"}],"stateMutability":"pure"},{"type":"function","name":"owner","inputs":[],"outputs":[{"name":"","type":"address","internalType":"address"}],"stateMutability":"view"},{"type":"function","name":"pyth","inputs":[],"outputs":[{"name":"","type":"address","internalType":"contract IPyth"}],"stateMutability":"view"},{"type":"function","name":"renounceOwnership","inputs":[],"outputs":[],"stateMutability":"nonpayable"},{"type":"function","name":"setMaxStaleness","inputs":[{"name":"seconds_","type":"uint256","internalType":"uint256"}],"outputs":[],"stateMutability":"nonpayable"},{"type":"function","name":"transferOwnership","inputs":[{"name":"newOwner","type":"address","internalType":"address"}],"outputs":[],"stateMutability":"nonpayable"},{"type":"event","name":"MaxStalenessUpdated","inputs":[{"name":"newMaxStaleness","type":"uint256","indexed":false,"internalType":"uint256"}],"anonymous":false},{"type":"event","name":"OwnershipTransferred","inputs":[{"name":"previousOwner","type":"address","indexed":true,"internalType":"address"},{"name":"newOwner","type":"address","indexed":true,"internalType":"address"}],"anonymous":false},{"type":"error","name":"NegativePrice","inputs":[]},{"type":"error","name":"OwnableInvalidOwner","inputs":[{"name":"owner","type":"address","internalType":"address"}]},{"type":"error","name":"OwnableUnauthorizedAccount","inputs":[{"name":"account","type":"address","internalType":"address"}]},{"type":"error","name":"StalePrice","inputs":[]}],"bytecode":{"object":"0x60a0346100e657601f61096738819003918201601f19168301916001600160401b038311848410176100ea5780849260409485528339810103126100e65780516001600160a01b03811691908290036100e6576020015133156100d3575f8054336001600160a01b0319821681178355604051949290916001600160a01b0316907f8be0079c531659141344cd1fd0a4f28419497f9722a3daafe3b4186f6b6457e09080a360805260015561086890816100ff8239608051818181609d015281816101b40152818161028e015261047a0152f35b631e4fbdf760e01b5f525f60045260245ffd5b5f80fd5b634e487b7160e01b5f52604160045260245ffdfe60806040526004361015610011575f80fd5b5f5f3560e01c8063100bc9e1146105475780631eaa1c65146105075780632708f7c214610441578063715018a6146103ea57806387cf4696146103cd5780638ab6b5d61461025f5780638da5cb5b14610238578063d47eed451461015d578063f2fde38b146100cf5763f98d06f014610088575f80fd5b346100cc57806003193601126100cc576040517f00000000000000000000000000000000000000000000000000000000000000006001600160a01b03168152602090f35b80fd5b50346100cc5760203660031901126100cc576004356001600160a01b03811690819003610159576100fe61080c565b80156101455781546001600160a01b03198116821783556001600160a01b03167f8be0079c531659141344cd1fd0a4f28419497f9722a3daafe3b4186f6b6457e08380a380f35b631e4fbdf760e01b82526004829052602482fd5b5080fd5b50346100cc5760203660031901126100cc5760043567ffffffffffffffff81116101595760206101946101b0923690600401610593565b60405163d47eed4560e01b815293849283929060048401610768565b03817f00000000000000000000000000000000000000000000000000000000000000006001600160a01b03165afa90811561022d5782916101f7575b602082604051908152f35b90506020813d602011610225575b81610212602093836106be565b810103126101595760209150515f6101ec565b3d9150610205565b6040513d84823e3d90fd5b50346100cc57806003193601126100cc57546040516001600160a01b039091168152602090f35b5060403660031901126103c95760243567ffffffffffffffff81116103c95761028c903690600401610593565b7f00000000000000000000000000000000000000000000000000000000000000006001600160a01b03169291833b156103c957604051631df3cbc560e31b8152915f91839182916102e1919060048401610768565b038134875af180156103be576103ab575b50608060015460446040518095819363052571af60e51b8352600435600484015260248301525afa91821561039e57819261036d575b5080825160070b131561035e57604082606061034f825160070b8484015160030b906105ff565b91015182519182526020820152f35b6330e53b6960e11b8152600490fd5b61039091925060803d608011610397575b61038881836106be565b8101906106f4565b905f610328565b503d61037e565b50604051903d90823e3d90fd5b6103b791505f906106be565b5f5f6102f2565b6040513d5f823e3d90fd5b5f80fd5b346103c9575f3660031901126103c9576020600154604051908152f35b346103c9575f3660031901126103c95761040261080c565b5f80546001600160a01b0319811682556001600160a01b03167f8be0079c531659141344cd1fd0a4f28419497f9722a3daafe3b4186f6b6457e08280a3005b346103c95760203660031901126103c95760015460405163052571af60e51b8152600480359082015260248101919091526080816044817f00000000000000000000000000000000000000000000000000000000000000006001600160a01b03165afa9081156103be575f916104e8575b505f815160070b13156104d95780606061034f6040935160070b8484015160030b906105ff565b6330e53b6960e11b5f5260045ffd5b610501915060803d6080116103975761038881836106be565b816104b2565b346103c95760403660031901126103c9576004358060070b81036103c957602435908160030b82036103c95760209161053f916105ff565b604051908152f35b346103c95760203660031901126103c9577f64a4703c7c168827058126cbd2e71d8d0f026afa821e7dff1480173dffdd3895602060043561058661080c565b80600155604051908152a1005b9181601f840112156103c95782359167ffffffffffffffff83116103c9576020808501948460051b0101116103c957565b63ffffffff16604d81116105d857600a0a90565b634e487b7160e01b5f52601160045260245ffd5b818102929181159184041417156105d857565b5f8160070b13156104d95767ffffffffffffffff16908060030b905f82125f1461069b5750637fffffff1981146105d8575f0363ffffffff1660128111610664576012039063ffffffff82116105d85761065b610661926105c4565b906105ec565b90565b6011190163ffffffff81116105d85761067c906105c4565b908115610687570490565b634e487b7160e01b5f52601260045260245ffd5b63ffffffff9150166012019063ffffffff82116105d85761065b610661926105c4565b90601f8019910116810190811067ffffffffffffffff8211176106e057604052565b634e487b7160e01b5f52604160045260245ffd5b908160809103126103c957604051906080820182811067ffffffffffffffff8211176106e05760405280518060070b81036103c9578252602081015167ffffffffffffffff811681036103c95760208301526040810151908160030b82036103c95760609160408401520151606082015290565b9180602084016020855252604083019060408160051b85010193835f91601e1982360301905b84841061079f575050505050505090565b90919293949596603f198282030187528735838112156103c9578401906020823592019167ffffffffffffffff81116103c95780360383136103c9576020828280600196849695859652848401375f828201840152601f01601f191601019901970195940192919061078e565b5f546001600160a01b0316330361081f57565b63118cdaa760e01b5f523360045260245ffdfea26469706673582212208ea9d81894fa97e178e4e1a441cddf253873f05240dfca94ef7a1bf50dad0c3564736f6c634300081c0033","linkReferences":{}},"methodIdentifiers":{"getPrice(bytes32,bytes[])":"8ab6b5d6","getPriceCached(bytes32)":"2708f7c2","getUpdateFee(bytes[])":"d47eed45","maxStaleness()":"87cf4696","normalizePythPrice(int64,int32)":"1eaa1c65","owner()":"8da5cb5b","pyth()":"f98d06f0","renounceOwnership()":"715018a6","setMaxStaleness(uint256)":"100bc9e1","transferOwnership(address)":"f2fde38b"},"id":35}