{"abi":[{"type":"constructor","inputs":[],"stateMutability":"nonpayable"},{"type":"function","name":"assets","inputs":[{"name":"xStock","type":"address","internalType":"address"}],"outputs":[{"name":"principalToken","type":"address","internalType":"address"},{"name":"dividendToken","type":"address","internalType":"address"},{"name":"pythFeedId","type":"bytes32","internalType":"bytes32"},{"name":"lastMultiplier","type":"uint256","internalType":"uint256"},{"name":"accDivPerShare","type":"uint256","internalType":"uint256"},{"name":"totalDeposited","type":"uint256","internalType":"uint256"},{"name":"minDepositAmount","type":"uint256","internalType":"uint256"}],"stateMutability":"view"},{"type":"function","name":"claimDividend","inputs":[{"name":"xStock","type":"address","internalType":"address"}],"outputs":[{"name":"claimed","type":"uint256","internalType":"uint256"}],"stateMutability":"nonpayable"},{"type":"function","name":"deposit","inputs":[{"name":"xStock","type":"address","internalType":"address"},{"name":"amount","type":"uint256","internalType":"uint256"}],"outputs":[],"stateMutability":"nonpayable"},{"type":"function","name":"dxToXStock","inputs":[{"name":"dxToken","type":"address","internalType":"address"}],"outputs":[{"name":"xStock","type":"address","internalType":"address"}],"stateMutability":"view"},{"type":"function","name":"getAssetConfig","inputs":[{"name":"xStock","type":"address","internalType":"address"}],"outputs":[{"name":"","type":"tuple","internalType":"struct XStreamVault.AssetConfig","components":[{"name":"principalToken","type":"address","internalType":"address"},{"name":"dividendToken","type":"address","internalType":"address"},{"name":"pythFeedId","type":"bytes32","internalType":"bytes32"},{"name":"lastMultiplier","type":"uint256","internalType":"uint256"},{"name":"accDivPerShare","type":"uint256","internalType":"uint256"},{"name":"totalDeposited","type":"uint256","internalType":"uint256"},{"name":"minDepositAmount","type":"uint256","internalType":"uint256"}]}],"stateMutability":"view"},{"type":"function","name":"getRewardDebt","inputs":[{"name":"xStock","type":"address","internalType":"address"},{"name":"user","type":"address","internalType":"address"}],"outputs":[{"name":"","type":"uint256","internalType":"uint256"}],"stateMutability":"view"},{"type":"function","name":"onDxTransfer","inputs":[{"name":"xStock","type":"address","internalType":"address"},{"name":"from","type":"address","internalType":"address"},{"name":"fromBalanceBefore","type":"uint256","internalType":"uint256"},{"name":"to","type":"address","internalType":"address"},{"name":"toBalanceBefore","type":"uint256","internalType":"uint256"},{"name":"amount","type":"uint256","internalType":"uint256"}],"outputs":[],"stateMutability":"nonpayable"},{"type":"function","name":"owner","inputs":[],"outputs":[{"name":"","type":"address","internalType":"address"}],"stateMutability":"view"},{"type":"function","name":"pause","inputs":[],"outputs":[],"stateMutability":"nonpayable"},{"type":"function","name":"paused","inputs":[],"outputs":[{"name":"","type":"bool","internalType":"bool"}],"stateMutability":"view"},{"type":"function","name":"pendingDividend","inputs":[{"name":"xStock","type":"address","internalType":"address"},{"name":"user","type":"address","internalType":"address"}],"outputs":[{"name":"","type":"uint256","internalType":"uint256"}],"stateMutability":"view"},{"type":"function","name":"registerAsset","inputs":[{"name":"xStock","type":"address","internalType":"address"},{"name":"pythFeedId","type":"bytes32","internalType":"bytes32"},{"name":"name","type":"string","internalType":"string"}],"outputs":[{"name":"principalToken","type":"address","internalType":"address"},{"name":"dividendToken","type":"address","internalType":"address"}],"stateMutability":"nonpayable"},{"type":"function","name":"renounceOwnership","inputs":[],"outputs":[],"stateMutability":"nonpayable"},{"type":"function","name":"rewardDebt","inputs":[{"name":"user","type":"address","internalType":"address"},{"name":"xStock","type":"address","internalType":"address"}],"outputs":[{"name":"","type":"uint256","internalType":"uint256"}],"stateMutability":"view"},{"type":"function","name":"setMinDepositAmount","inputs":[{"name":"xStock","type":"address","internalType":"address"},{"name":"amount","type":"uint256","internalType":"uint256"}],"outputs":[],"stateMutability":"nonpayable"},{"type":"function","name":"syncDividend","inputs":[{"name":"xStock","type":"address","internalType":"address"}],"outputs":[{"name":"delta","type":"uint256","internalType":"uint256"}],"stateMutability":"nonpayable"},{"type":"function","name":"transferOwnership","inputs":[{"name":"newOwner","type":"address","internalType":"address"}],"outputs":[],"stateMutability":"nonpayable"},{"type":"function","name":"unpause","inputs":[],"outputs":[],"stateMutability":"nonpayable"},{"type":"function","name":"withdraw","inputs":[{"name":"xStock","type":"address","internalType":"address"},{"name":"amount","type":"uint256","internalType":"uint256"}],"outputs":[],"stateMutability":"nonpayable"},{"type":"event","name":"AssetRegistered","inputs":[{"name":"xStock","type":"address","indexed":true,"internalType":"address"},{"name":"principalToken","type":"address","indexed":false,"internalType":"address"},{"name":"dividendToken","type":"address","indexed":false,"internalType":"address"},{"name":"pythFeedId","type":"bytes32","indexed":false,"internalType":"bytes32"}],"anonymous":false},{"type":"event","name":"Deposited","inputs":[{"name":"user","type":"address","indexed":true,"internalType":"address"},{"name":"xStock","type":"address","indexed":true,"internalType":"address"},{"name":"amount","type":"uint256","indexed":false,"internalType":"uint256"},{"name":"timestamp","type":"uint256","indexed":false,"internalType":"uint256"}],"anonymous":false},{"type":"event","name":"DividendClaimed","inputs":[{"name":"user","type":"address","indexed":true,"internalType":"address"},{"name":"xStock","type":"address","indexed":true,"internalType":"address"},{"name":"claimed","type":"uint256","indexed":false,"internalType":"uint256"}],"anonymous":false},{"type":"event","name":"DividendSynced","inputs":[{"name":"xStock","type":"address","indexed":true,"internalType":"address"},{"name":"delta","type":"uint256","indexed":false,"internalType":"uint256"},{"name":"newAccDivPerShare","type":"uint256","indexed":false,"internalType":"uint256"}],"anonymous":false},{"type":"event","name":"OwnershipTransferred","inputs":[{"name":"previousOwner","type":"address","indexed":true,"internalType":"address"},{"name":"newOwner","type":"address","indexed":true,"internalType":"address"}],"anonymous":false},{"type":"event","name":"Paused","inputs":[{"name":"account","type":"address","indexed":false,"internalType":"address"}],"anonymous":false},{"type":"event","name":"Unpaused","inputs":[{"name":"account","type":"address","indexed":false,"internalType":"address"}],"anonymous":false},{"type":"event","name":"Withdrawn","inputs":[{"name":"user","type":"address","indexed":true,"internalType":"address"},{"name":"xStock","type":"address","indexed":true,"internalType":"address"},{"name":"amount","type":"uint256","indexed":false,"internalType":"uint256"},{"name":"dividendClaimed","type":"uint256","indexed":false,"internalType":"uint256"}],"anonymous":false},{"type":"error","name":"AssetAlreadyRegistered","inputs":[]},{"type":"error","name":"AssetNotRegistered","inputs":[]},{"type":"error","name":"EnforcedPause","inputs":[]},{"type":"error","name":"ExpectedPause","inputs":[]},{"type":"error","name":"InsufficientBalance","inputs":[]},{"type":"error","name":"MinDepositNotMet","inputs":[]},{"type":"error","name":"OnlyDxToken","inputs":[]},{"type":"error","name":"OwnableInvalidOwner","inputs":[{"name":"owner","type":"address","internalType":"address"}]},{"type":"error","name":"OwnableUnauthorizedAccount","inputs":[{"name":"account","type":"address","internalType":"address"}]},{"type":"error","name":"ReentrancyGuardReentrantCall","inputs":[]}],"bytecode":{"object":"0x6080806040523460955733156082575f8054336001600160a01b0319821681178355916001600160a01b03909116907f8be0079c531659141344cd1fd0a4f28419497f9722a3daafe3b4186f6b6457e09080a360017f9b779b17422d0df92223018b32b4d1fa46e071723d6817e2486d003becc55f005561327d908161009a8239f35b631e4fbdf760e01b5f525f60045260245ffd5b5f80fdfe60806040526004361015610011575f80fd5b5f5f3560e01c8063092812a51461137b57806315f7e05e146113135780631944e2a9146112d35780633f4ba83a14611267578063452e3d1e14610f6257806347e7ef2414610cb15780635c975abb14610c8c5780636674875d146108c05780636ec3ab67146107c0578063715018a6146107665780637b4717a41461071357806381c8f965146106b75780638456cb59146106565780638da5cb5b1461062f578063ada98cc3146105dc578063dfe15bac1461059a578063f11b81881461050f578063f2fde38b146104895763f3fef3a3146100eb575f80fd5b34610486576040366003190112610486576101046113a7565b60243561010f611917565b610117611592565b6001600160a01b0382811680855260016020526040852080549194919092169182156104775760018101546040516370a0823160e01b81523360048201526001600160a01b039091169290602081602481885afa80156104375786918991610442575b501080156103cf575b6103c05761019c8161019589936115ca565b503361175b565b93803b156103bc57604051632770a7eb60e21b8152336004820152602481018790529082908290604490829084905af1801561039c576103a7575b5050813b1561039857604051632770a7eb60e21b8152336004820152602481018590528690818160448183885af1801561039c57610383575b50506020602492604051938480926370a0823160e01b82523360048301525afa918215610378578692610332575b506a0c097ce7bc90715b34b9f160241b61025f600593600484015490611425565b04338752600360205260408720865f5260205260405f20550161028383825461144c565b905560405163a9059cbb60e01b81523360048201526024810183905260208160448188885af18015610327576102fa575b5060405191825260208201527f91fb9d98b786c57d74c099ccd2beca1739e9f6a81fb49001ca465c4b7591bbe260403392a360015f5160206132285f395f51905f525580f35b61031b9060203d602011610320575b6103138183611403565b810190611549565b6102b4565b503d610309565b6040513d87823e3d90fd5b91506020823d602011610370575b8161034d60209383611403565b8101031261036c579051906a0c097ce7bc90715b34b9f160241b61023e565b5f80fd5b3d9150610340565b6040513d88823e3d90fd5b8161038d91611403565b61039857855f610210565b8580fd5b6040513d84823e3d90fd5b816103b191611403565b61039857855f6101d7565b5080fd5b631e9acf1760e31b8752600487fd5b506040516370a0823160e01b8152336004820152602081602481875afa80156104375786918991610402575b5010610183565b9150506020813d60201161042f575b8161041e60209383611403565b8101031261036c578590515f6103fb565b3d9150610411565b6040513d8a823e3d90fd5b9150506020813d60201161046f575b8161045e60209383611403565b8101031261036c578590515f61017a565b3d9150610451565b630719d53360e21b8652600486fd5b80fd5b5034610486576020366003190112610486576104a36113a7565b6104ab6118f1565b6001600160a01b031680156104fb5781546001600160a01b03198116821783556001600160a01b03167f8be0079c531659141344cd1fd0a4f28419497f9722a3daafe3b4186f6b6457e08380a380f35b631e4fbdf760e01b82526004829052602482fd5b50346104865760203660031901126104865760e0906040906001600160a01b036105376113a7565b16815260016020522060018060a01b038154169060018060a01b0360018201541690600281015460038201546004830154916006600585015494015494604051968752602087015260408601526060850152608084015260a083015260c0820152f35b5034610486576040366003190112610486576105b46113a7565b6105bc6118f1565b6001600160a01b0316815260016020526040812060243560069091015580f35b50346104865760403660031901126104865760406105f86113a7565b916001600160a01b036106096113bd565b1681526003602052209060018060a01b03165f52602052602060405f2054604051908152f35b5034610486578060031936011261048657546040516001600160a01b039091168152602090f35b503461048657806003193601126104865761066f6118f1565b610677611917565b805460ff60a01b1916600160a01b1781556040513381527f62e78cea01bee320cd4e420270b5ea74000d11b0c9f74754ebdbfc544b05a25890602090a180f35b5034610486576020366003190112610486576106d16113a7565b6001600160a01b0380821683526001602052604083205491929116156107045760206106fc836115ca565b604051908152f35b630719d53360e21b8152600490fd5b503461048657604036600319011261048657604061072f6113a7565b916107386113bd565b9260018060a01b031681526003602052209060018060a01b03165f52602052602060405f2054604051908152f35b503461048657806003193601126104865761077f6118f1565b80546001600160a01b03198116825581906001600160a01b03167f8be0079c531659141344cd1fd0a4f28419497f9722a3daafe3b4186f6b6457e08280a380f35b503461048657602036600319011261048657604060e0916107df6113a7565b8160c084516107ed816113d3565b82815282602082015282868201528260608201528260808201528260a0820152015260018060a01b0316815260016020522060405161082b816113d3565b60018060a01b038254169182825260018060a01b0360018201541660208301908152600282015460408401908152600383015490606085019182526004840154926080860193845260c0600660058701549660a089019788520154960195865260405196875260018060a01b0390511660208701525160408601525160608501525160808401525160a08301525160c0820152f35b5034610486576060366003190112610486576108da6113a7565b602435916044359167ffffffffffffffff83116103bc57366023840112156103bc5782600401359067ffffffffffffffff8211610c885760248401936024833692010111610c885761092a6118f1565b6001600160a01b039081168084526001602052604084205490929116610c79576040518185602083013761098760106020838581016f10283934b731b4b830b6102a37b5b2b760811b838201520301600f19810184520182611403565b60405190828660208401376109b76002602084868101610e0f60f31b838201520301601d19810185520183611403565b60405191610bc6918284019284841067ffffffffffffffff851117610c6557916109f4610a0292869594611935873960608552606085019061156e565b90838203602085015261156e565b90604030910152039084f08015610c5a5760018060a01b031693610a856002602060405193858183870137610a5e600f83878981016e102234bb34b232b732102a37b5b2b760891b838201520301601019810188520186611403565b85604051968792848401378101610c8f60f31b838201520301601d19810185520183611403565b60405191610d2d918284019284841067ffffffffffffffff851117610c4657610ad3859493610ac588946060946124fb893960808752608087019061156e565b90858203602087015261156e565b923060408201520152039083f0801561039c57604051630d9f6b9160e11b81526001600160a01b03919091169290602081600481865afa90811561039c578291610c11575b50604095867fa2cb1948e8afea2f2ad622d2ea16f6ef2cea86a4686a5adc9d251d24ad3bbbd3936060936006835191610b50836113d3565b8a835260208084018b81528685018881528986019384526080860187815260a0870188815260c088018981528e8a5260018087528b8b2099518a546001600160a01b03199081166001600160a01b03928316178c559651918b01805488169290911691909117905592516002808a01919091559551600389015590516004880155516005870155519390940192909255898452815292909120805490911686179055875187815290810186905280880191909152a282519182526020820152f35b9190506020823d602011610c3e575b81610c2d60209383611403565b8101031261036c5790516040610b18565b3d9150610c20565b634e487b7160e01b87526041600452602487fd5b6040513d85823e3d90fd5b634e487b7160e01b88526041600452602488fd5b63136d457160e21b8352600483fd5b8280fd5b503461048657806003193601126104865760ff6020915460a01c166040519015158152f35b503461036c57604036600319011261036c57610ccb6113a7565b602435610cd6611917565b610cde611592565b6001600160a01b038281165f81815260016020526040902080549194909290911615610f535760068201548310610f4457610d18906115ca565b506040516323b872dd60e01b8152336004820152306024820152604481018390526020816064815f885af18015610f1c57610f27575b5080546001600160a01b0316803b1561036c576040516340c10f1960e01b815233600482015260248101849052905f908290604490829084905af18015610f1c57610f07575b5060018101805490919085906001600160a01b0316803b156103bc576040516340c10f1960e01b8152336004820152602481018690529082908290604490829084905af1801561039c57610eee575b505090546040516370a0823160e01b81523360048201529190602090839060249082906001600160a01b03165afa918215610327578592610eac575b506a0c097ce7bc90715b34b9f160241b610e40600593600484015490611425565b04338652600360205260408620855f5260205260405f205501610e64828254611561565b90556040519081524260208201527ff5681f9d0db1b911ac18ee83d515a1cf1051853a9eae418316a2fdf7dea427c560403392a360015f5160206132285f395f51905f525580f35b91506020823d602011610ee6575b81610ec760209383611403565b8101031261036c579051906a0c097ce7bc90715b34b9f160241b610e1f565b3d9150610eba565b81610ef891611403565b610f0357845f610de3565b8480fd5b610f149194505f90611403565b5f925f610d94565b6040513d5f823e3d90fd5b610f3f9060203d602011610320576103138183611403565b610d4e565b630f423b1560e01b5f5260045ffd5b630719d53360e21b5f5260045ffd5b3461036c5760c036600319011261036c57610f7b6113a7565b610f836113bd565b6064356001600160a01b0381169291604435919084820361036c57335f908152600260205260409020546001600160a01b0394851694608435929160a435911686900361125857855f52600160205260405f209385611179575b83611061575b50906a0c097ce7bc90715b34b9f160241b61101e60046110138561100d611045999897869b61144c565b96611561565b950193845490611425565b049060018060a01b03165f52600360205260405f20865f5260205260405f20555490611425565b04915f52600360205260405f20905f5260205260405f20555f80f35b61109f6a0c097ce7bc90715b34b9f160241b611081600488015487611425565b04895f52600360205260405f20895f5260205260405f20549061144c565b90816110ac575b50610fe3565b60405163a9059cbb60e01b81526001600160a01b03919091166004820152602481018290529194939291906020826044815f8c5af1968715610f1c576110138761100d611045996004948d8f7ff672323216d71b2d59f826d5cc49657006c38667b59ae06ec262b9f71bed64fb6a0c097ce7bc90715b34b9f160241b9f6a0c097ce7bc90715b34b9f160241b9b9a61101e9b60209261115e575b50604051908152a39b505050949596975050506110a6565b61117490833d8511610320576103138183611403565b611146565b6a0c097ce7bc90715b34b9f160241b611196600487015488611425565b046111c160018060a01b03851691825f52600360205260405f208a5f5260205260405f20549061144c565b90816111cf575b5050610fdd565b60405163a9059cbb60e01b81526001600160a01b0386166004820152602481018390526020816044815f8e5af18015610f1c578a937ff672323216d71b2d59f826d5cc49657006c38667b59ae06ec262b9f71bed64fb9260209261123d575b50604051908152a388806111c8565b61125390833d8511610320576103138183611403565b61122e565b63120b385960e01b5f5260045ffd5b3461036c575f36600319011261036c5761127f6118f1565b5f5460ff8160a01c16156112c45760ff60a01b19165f556040513381527f5db9ee0a495bf2e6ff9c91a7834c1ba4fdd244a5e8aa4e537bd38aeae4b073aa90602090a1005b638dfc202b60e01b5f5260045ffd5b3461036c57602036600319011261036c576001600160a01b036112f46113a7565b165f526002602052602060018060a01b0360405f205416604051908152f35b3461036c57602036600319011261036c5761132c6113a7565b611334611592565b6001600160a01b038181165f908152600160205260409020541615610f5357611362816101956020936115ca565b60015f5160206132285f395f51905f5255604051908152f35b3461036c57604036600319011261036c5760206106fc6113996113a7565b6113a16113bd565b90611459565b600435906001600160a01b038216820361036c57565b602435906001600160a01b038216820361036c57565b60e0810190811067ffffffffffffffff8211176113ef57604052565b634e487b7160e01b5f52604160045260245ffd5b90601f8019910116810190811067ffffffffffffffff8211176113ef57604052565b8181029291811591840414171561143857565b634e487b7160e01b5f52601160045260245ffd5b9190820391821161143857565b6001600160a01b038181165f908152600160208181526040928390209182015492516370a0823160e01b81529584166004870181905295939192909184916024918391165afa918215610f1c575f92611515575b50811561150d576a0c097ce7bc90715b34b9f160241b9160046114d292015490611425565b04915f52600360205260405f209060018060a01b03165f5260205260405f20548082115f14611507576115049161144c565b90565b50505f90565b505050505f90565b9091506020813d602011611541575b8161153160209383611403565b8101031261036c5751905f6114ad565b3d9150611524565b9081602091031261036c5751801515810361036c5790565b9190820180921161143857565b805180835260209291819084018484015e5f828201840152601f01601f1916010190565b60025f5160206132285f395f51905f5254146115bb5760025f5160206132285f395f51905f5255565b633ee5aeb560e01b5f5260045ffd5b6001600160a01b03165f81815260016020526040902060058101549092919080156116f457604051630d9f6b9160e11b815293602085600481865afa948515610f1c575f956116c0575b5060038101908154808711156116b6576116408461163b670de0b6b3a7640000938a61144c565b611425565b04956a0c097ce7bc90715b34b9f160241b8702928784046a0c097ce7bc90715b34b9f160241b1488151715611438576116a460047f8384938a2fb96c49f3474bf257216bf5f0dfb82a3f0e09f20a04eefddfa0489f96604096049401938454611561565b809355558151908682526020820152a2565b505f955050505050565b9094506020813d6020116116ec575b816116dc60209383611403565b8101031261036c5751935f611614565b3d91506116cf565b509160206004929360405193848092630d9f6b9160e11b82525afa918215610f1c575f92611726575b50600301555f90565b9091506020813d602011611753575b8161174260209383611403565b8101031261036c575190600361171d565b3d9150611735565b6001600160a01b039182165f8181526001602081815260408084209283015490516370a0823160e01b8152878716600482018190529498979093929184916024918391165afa918215610f1c575f926118bd575b5081156116b6576a0c097ce7bc90715b34b9f160241b9160046117d492015490611425565b04815f52600360205260405f20835f5260205260405f20548082116117fb575b5050505050565b61185a9293949650906118106020928261144c565b5f85815260038452604080822088835285529081902092909255905163a9059cbb60e01b81526001600160a01b039097166004880152602487018190529591829081906044820190565b03815f875af18015610f1c576118a0575b507ff672323216d71b2d59f826d5cc49657006c38667b59ae06ec262b9f71bed64fb6020604051868152a35f808080806117f4565b6118b89060203d602011610320576103138183611403565b61186b565b9091506020813d6020116118e9575b816118d960209383611403565b8101031261036c5751905f6117af565b3d91506118cc565b5f546001600160a01b0316330361190457565b63118cdaa760e01b5f523360045260245ffd5b60ff5f5460a01c1661192557565b63d93c066560e01b5f5260045ffdfe60a06040523461034357610bc68038038061001981610347565b9283398101906060818303126103435780516001600160401b038111610343578261004591830161036c565b60208201519092906001600160401b0381116103435760409161006991840161036c565b9101516001600160a01b03811681036103435782516001600160401b03811161025457600354600181811c91168015610339575b602082101461023657601f81116102d6575b506020601f821160011461027357819293945f92610268575b50508160011b915f199060031b1c1916176003555b81516001600160401b03811161025457600454600181811c9116801561024a575b602082101461023657601f81116101d3575b50602092601f821160011461017257928192935f92610167575b50508160011b915f199060031b1c1916176004555b60805260405161080890816103be823960805181818160b50152818161018801526103c80152f35b015190505f8061012a565b601f1982169360045f52805f20915f5b8681106101bb57508360019596106101a3575b505050811b0160045561013f565b01515f1960f88460031b161c191690555f8080610195565b91926020600181928685015181550194019201610182565b60045f527f8a35acfbc15ff81a39ae7d344fd709f28e8600b4aa8c65c6b64bfe7fe36bd19b601f830160051c8101916020841061022c575b601f0160051c01905b8181106102215750610110565b5f8155600101610214565b909150819061020b565b634e487b7160e01b5f52602260045260245ffd5b90607f16906100fe565b634e487b7160e01b5f52604160045260245ffd5b015190505f806100c8565b601f1982169060035f52805f20915f5b8181106102be575095836001959697106102a6575b505050811b016003556100dd565b01515f1960f88460031b161c191690555f8080610298565b9192602060018192868b015181550194019201610283565b60035f527fc2575a0e9e593c00f959f8c92f12db2869c3395a3b0502d05e2516446f71f85b601f830160051c8101916020841061032f575b601f0160051c01905b81811061032457506100af565b5f8155600101610317565b909150819061030e565b90607f169061009d565b5f80fd5b6040519190601f01601f191682016001600160401b0381118382101761025457604052565b81601f82011215610343578051906001600160401b0382116102545761039b601f8301601f1916602001610347565b928284526020838301011161034357815f9260208093018386015e830101529056fe6080806040526004361015610012575f80fd5b5f3560e01c90816306fdde031461061657508063095ea7b31461059457806318160ddd1461057757806323b872dd14610498578063313ce5671461047d57806340c10f19146103a957806370a082311461037257806395d89b41146102575780639dc29fac14610169578063a9059cbb14610138578063dd62ed3e146100e85763fbfa77cf146100a0575f80fd5b346100e4575f3660031901126100e4576040517f00000000000000000000000000000000000000000000000000000000000000006001600160a01b03168152602090f35b5f80fd5b346100e45760403660031901126100e45761010161070f565b610109610725565b6001600160a01b039182165f908152600160209081526040808320949093168252928352819020549051908152f35b346100e45760403660031901126100e45761015e61015461070f565b602435903361073b565b602060405160018152f35b346100e45760403660031901126100e45761018261070f565b602435907f00000000000000000000000000000000000000000000000000000000000000006001600160a01b03163303610248576001600160a01b0316801561023557805f525f60205260405f205482811061021c576020835f947fddf252ad1be2c89b69c2b068fc378daa952ba7f163c4a11628f55a4df523b3ef938587528684520360408620558060025403600255604051908152a3005b9063391434e360e21b5f5260045260245260445260645ffd5b634b637e8f60e11b5f525f60045260245ffd5b638d1af8bd60e01b5f5260045ffd5b346100e4575f3660031901126100e4576040515f6004548060011c90600181168015610368575b6020831081146103545782855290811561033857506001146102e3575b50819003601f01601f191681019067ffffffffffffffff8211818310176102cf576102cb829182604052826106e5565b0390f35b634e487b7160e01b5f52604160045260245ffd5b905060045f527f8a35acfbc15ff81a39ae7d344fd709f28e8600b4aa8c65c6b64bfe7fe36bd19b5f905b8282106103225750602091508201018261029b565b600181602092548385880101520191019061030d565b90506020925060ff191682840152151560051b8201018261029b565b634e487b7160e01b5f52602260045260245ffd5b91607f169161027e565b346100e45760203660031901126100e4576001600160a01b0361039361070f565b165f525f602052602060405f2054604051908152f35b346100e45760403660031901126100e4576103c261070f565b602435907f00000000000000000000000000000000000000000000000000000000000000006001600160a01b03163303610248576001600160a01b031690811561046a57600254908082018092116104565760207fddf252ad1be2c89b69c2b068fc378daa952ba7f163c4a11628f55a4df523b3ef915f9360025584845283825260408420818154019055604051908152a3005b634e487b7160e01b5f52601160045260245ffd5b63ec442f0560e01b5f525f60045260245ffd5b346100e4575f3660031901126100e457602060405160128152f35b346100e45760603660031901126100e4576104b161070f565b6104b9610725565b6001600160a01b0382165f818152600160209081526040808320338452909152902054909260443592915f1981106104f7575b5061015e935061073b565b83811061055c5784156105495733156105365761015e945f52600160205260405f2060018060a01b0333165f526020528360405f2091039055846104ec565b634a1406b160e11b5f525f60045260245ffd5b63e602df0560e01b5f525f60045260245ffd5b8390637dc7a0d960e11b5f523360045260245260445260645ffd5b346100e4575f3660031901126100e4576020600254604051908152f35b346100e45760403660031901126100e4576105ad61070f565b602435903315610549576001600160a01b031690811561053657335f52600160205260405f20825f526020528060405f20556040519081527f8c5be1e5ebec7d5bd14f71427d1e84f3dd0314c0f7b2291e5b200ac8c7c3b92560203392a3602060405160018152f35b346100e4575f3660031901126100e4575f6003548060011c906001811680156106db575b6020831081146103545782855290811561033857506001146106865750819003601f01601f191681019067ffffffffffffffff8211818310176102cf576102cb829182604052826106e5565b905060035f527fc2575a0e9e593c00f959f8c92f12db2869c3395a3b0502d05e2516446f71f85b5f905b8282106106c55750602091508201018261029b565b60018160209254838588010152019101906106b0565b91607f169161063a565b602060409281835280519182918282860152018484015e5f828201840152601f01601f1916010190565b600435906001600160a01b03821682036100e457565b602435906001600160a01b03821682036100e457565b6001600160a01b0316908115610235576001600160a01b031691821561046a57815f525f60205260405f20548181106107b957817fddf252ad1be2c89b69c2b068fc378daa952ba7f163c4a11628f55a4df523b3ef92602092855f525f84520360405f2055845f525f825260405f20818154019055604051908152a3565b8263391434e360e21b5f5260045260245260445260645ffdfea264697066735822122004a96d932dd2eb208c76c80e6c8dc613e8e68d192f200cdd269371bf48e6235564736f6c634300081c003360c06040523461036657610d2d803803806100198161036a565b9283398101906080818303126103665780516001600160401b038111610366578261004591830161038f565b602082015190926001600160401b0382116103665761006591830161038f565b9061007e6060610077604084016103e0565b92016103e0565b83519091906001600160401b03811161027757600354600181811c9116801561035c575b602082101461025957601f81116102f9575b50602094601f8211600114610296579481929394955f9261028b575b50508160011b915f199060031b1c1916176003555b82516001600160401b03811161027757600454600181811c9116801561026d575b602082101461025957601f81116101f6575b506020601f821160011461019357819293945f92610188575b50508160011b915f199060031b1c1916176004555b60805260a05260405161093890816103f5823960805181818160c0015281816101d70152818161040001526107cd015260a051818181610158015261081e0152f35b015190505f80610131565b601f1982169060045f52805f20915f5b8181106101de575095836001959697106101c6575b505050811b01600455610146565b01515f1960f88460031b161c191690555f80806101b8565b9192602060018192868b0151815501940192016101a3565b60045f527f8a35acfbc15ff81a39ae7d344fd709f28e8600b4aa8c65c6b64bfe7fe36bd19b601f830160051c8101916020841061024f575b601f0160051c01905b8181106102445750610118565b5f8155600101610237565b909150819061022e565b634e487b7160e01b5f52602260045260245ffd5b90607f1690610106565b634e487b7160e01b5f52604160045260245ffd5b015190505f806100d0565b601f1982169560035f52805f20915f5b8881106102e1575083600195969798106102c9575b505050811b016003556100e5565b01515f1960f88460031b161c191690555f80806102bb565b919260206001819286850151815501940192016102a6565b60035f527fc2575a0e9e593c00f959f8c92f12db2869c3395a3b0502d05e2516446f71f85b601f830160051c81019160208410610352575b601f0160051c01905b81811061034757506100b4565b5f815560010161033a565b9091508190610331565b90607f16906100a2565b5f80fd5b6040519190601f01601f191682016001600160401b0381118382101761027757604052565b81601f82011215610366578051906001600160401b038211610277576103be601f8301601f191660200161036a565b928284526020838301011161036657815f9260208093018386015e8301015290565b51906001600160a01b03821682036103665756fe6080806040526004361015610012575f80fd5b5f3560e01c90816306fdde031461064e57508063095ea7b3146105cc57806318160ddd146105af57806323b872dd146104d0578063313ce567146104b557806340c10f19146103e157806370a08231146103aa57806395d89b41146102a65780639dc29fac146101b8578063a9059cbb14610187578063c61aef9c14610143578063dd62ed3e146100f35763fbfa77cf146100ab575f80fd5b346100ef575f3660031901126100ef576040517f00000000000000000000000000000000000000000000000000000000000000006001600160a01b03168152602090f35b5f80fd5b346100ef5760403660031901126100ef5761010c610730565b610114610746565b6001600160a01b039182165f908152600160209081526040808320949093168252928352819020549051908152f35b346100ef575f3660031901126100ef576040517f00000000000000000000000000000000000000000000000000000000000000006001600160a01b03168152602090f35b346100ef5760403660031901126100ef576101ad6101a3610730565b6024359033610792565b602060405160018152f35b346100ef5760403660031901126100ef576101d1610730565b602435907f00000000000000000000000000000000000000000000000000000000000000006001600160a01b03163303610297576001600160a01b0316801561028457805f525f60205260405f205482811061026b576020835f947fddf252ad1be2c89b69c2b068fc378daa952ba7f163c4a11628f55a4df523b3ef938587528684520360408620558060025403600255604051908152a3005b9063391434e360e21b5f5260045260245260445260645ffd5b634b637e8f60e11b5f525f60045260245ffd5b638d1af8bd60e01b5f5260045ffd5b346100ef575f3660031901126100ef576040515f6004548060011c906001811680156103a0575b60208310811461038c57828552908115610368575060011461030a575b610306836102fa8185038261075c565b60405191829182610706565b0390f35b91905060045f527f8a35acfbc15ff81a39ae7d344fd709f28e8600b4aa8c65c6b64bfe7fe36bd19b915f905b80821061034e575090915081016020016102fa6102ea565b919260018160209254838588010152019101909291610336565b60ff191660208086019190915291151560051b840190910191506102fa90506102ea565b634e487b7160e01b5f52602260045260245ffd5b91607f16916102cd565b346100ef5760203660031901126100ef576001600160a01b036103cb610730565b165f525f602052602060405f2054604051908152f35b346100ef5760403660031901126100ef576103fa610730565b602435907f00000000000000000000000000000000000000000000000000000000000000006001600160a01b03163303610297576001600160a01b03169081156104a2576002549080820180921161048e5760207fddf252ad1be2c89b69c2b068fc378daa952ba7f163c4a11628f55a4df523b3ef915f9360025584845283825260408420818154019055604051908152a3005b634e487b7160e01b5f52601160045260245ffd5b63ec442f0560e01b5f525f60045260245ffd5b346100ef575f3660031901126100ef57602060405160128152f35b346100ef5760603660031901126100ef576104e9610730565b6104f1610746565b6001600160a01b0382165f818152600160209081526040808320338452909152902054909260443592915f19811061052f575b506101ad9350610792565b83811061059457841561058157331561056e576101ad945f52600160205260405f2060018060a01b0333165f526020528360405f209103905584610524565b634a1406b160e11b5f525f60045260245ffd5b63e602df0560e01b5f525f60045260245ffd5b8390637dc7a0d960e11b5f523360045260245260445260645ffd5b346100ef575f3660031901126100ef576020600254604051908152f35b346100ef5760403660031901126100ef576105e5610730565b602435903315610581576001600160a01b031690811561056e57335f52600160205260405f20825f526020528060405f20556040519081527f8c5be1e5ebec7d5bd14f71427d1e84f3dd0314c0f7b2291e5b200ac8c7c3b92560203392a3602060405160018152f35b346100ef575f3660031901126100ef575f6003548060011c906001811680156106fc575b60208310811461038c57828552908115610368575060011461069e57610306836102fa8185038261075c565b91905060035f527fc2575a0e9e593c00f959f8c92f12db2869c3395a3b0502d05e2516446f71f85b915f905b8082106106e2575090915081016020016102fa6102ea565b9192600181602092548385880101520191019092916106ca565b91607f1691610672565b602060409281835280519182918282860152018484015e5f828201840152601f01601f1916010190565b600435906001600160a01b03821682036100ef57565b602435906001600160a01b03821682036100ef57565b90601f8019910116810190811067ffffffffffffffff82111761077e57604052565b634e487b7160e01b5f52604160045260245ffd5b5f926001600160a01b03909116918215610284576001600160a01b03169283156104a2575f83815260208190526040808220548683529120547f00000000000000000000000000000000000000000000000000000000000000006001600160a01b03169190823b156100ef5760c45f928360405195869485936322971e8f60e11b855260018060a01b037f00000000000000000000000000000000000000000000000000000000000000001660048601528b602486015260448501528b606485015260848401528860a48401525af180156108f7576108e4575b508281528060205260408120548281106108ca5791604082827fddf252ad1be2c89b69c2b068fc378daa952ba7f163c4a11628f55a4df523b3ef958760209652828652038282205586815280845220818154019055604051908152a3565b916064928463391434e360e21b8452600452602452604452fd5b6108f091505f9061075c565b5f5f61086c565b6040513d5f823e3d90fdfea2646970667358221220922f9fdff187b8a31c7103fcbe5f5b7f81ccc5b77d5d0d9bdd8dcba5c8261c1464736f6c634300081c00339b779b17422d0df92223018b32b4d1fa46e071723d6817e2486d003becc55f00a2646970667358221220c1645f436d604d11c0999efc3788df4b4f6ae94c0f382f6ac4e1ec4dc684edda64736f6c634300081c0033","linkReferences":{}},"methodIdentifiers":{"assets(address)":"f11b8188","claimDividend(address)":"15f7e05e","deposit(address,uint256)":"47e7ef24","dxToXStock(address)":"1944e2a9","getAssetConfig(address)":"6ec3ab67","getRewardDebt(address,address)":"ada98cc3","onDxTransfer(address,address,uint256,address,uint256,uint256)":"452e3d1e","owner()":"8da5cb5b","pause()":"8456cb59","paused()":"5c975abb","pendingDividend(address,address)":"092812a5","registerAsset(address,bytes32,string)":"6674875d","renounceOwnership()":"715018a6","rewardDebt(address,address)":"7b4717a4","setMinDepositAmount(address,uint256)":"dfe15bac","syncDividend(address)":"81c8f965","transferOwnership(address)":"f2fde38b","unpause()":"3f4ba83a","withdraw(address,uint256)":"f3fef3a3"},"id":43}