{"abi":[{"type":"constructor","inputs":[{"name":"_validTimePeriod","type":"uint256","internalType":"uint256"},{"name":"_singleUpdateFeeInWei","type":"uint256","internalType":"uint256"}],"stateMutability":"nonpayable"},{"type":"function","name":"createPriceFeedUpdateData","inputs":[{"name":"id","type":"bytes32","internalType":"bytes32"},{"name":"price","type":"int64","internalType":"int64"},{"name":"conf","type":"uint64","internalType":"uint64"},{"name":"expo","type":"int32","internalType":"int32"},{"name":"emaPrice","type":"int64","internalType":"int64"},{"name":"emaConf","type":"uint64","internalType":"uint64"},{"name":"publishTime","type":"uint64","internalType":"uint64"}],"outputs":[{"name":"priceFeedData","type":"bytes","internalType":"bytes"}],"stateMutability":"pure"},{"type":"function","name":"getEmaPrice","inputs":[{"name":"id","type":"bytes32","internalType":"bytes32"}],"outputs":[{"name":"price","type":"tuple","internalType":"struct PythStructs.Price","components":[{"name":"price","type":"int64","internalType":"int64"},{"name":"conf","type":"uint64","internalType":"uint64"},{"name":"expo","type":"int32","internalType":"int32"},{"name":"publishTime","type":"uint256","internalType":"uint256"}]}],"stateMutability":"view"},{"type":"function","name":"getEmaPriceNoOlderThan","inputs":[{"name":"id","type":"bytes32","internalType":"bytes32"},{"name":"age","type":"uint256","internalType":"uint256"}],"outputs":[{"name":"price","type":"tuple","internalType":"struct PythStructs.Price","components":[{"name":"price","type":"int64","internalType":"int64"},{"name":"conf","type":"uint64","internalType":"uint64"},{"name":"expo","type":"int32","internalType":"int32"},{"name":"publishTime","type":"uint256","internalType":"uint256"}]}],"stateMutability":"view"},{"type":"function","name":"getEmaPriceUnsafe","inputs":[{"name":"id","type":"bytes32","internalType":"bytes32"}],"outputs":[{"name":"price","type":"tuple","internalType":"struct PythStructs.Price","components":[{"name":"price","type":"int64","internalType":"int64"},{"name":"conf","type":"uint64","internalType":"uint64"},{"name":"expo","type":"int32","internalType":"int32"},{"name":"publishTime","type":"uint256","internalType":"uint256"}]}],"stateMutability":"view"},{"type":"function","name":"getPrice","inputs":[{"name":"id","type":"bytes32","internalType":"bytes32"}],"outputs":[{"name":"price","type":"tuple","internalType":"struct PythStructs.Price","components":[{"name":"price","type":"int64","internalType":"int64"},{"name":"conf","type":"uint64","internalType":"uint64"},{"name":"expo","type":"int32","internalType":"int32"},{"name":"publishTime","type":"uint256","internalType":"uint256"}]}],"stateMutability":"view"},{"type":"function","name":"getPriceNoOlderThan","inputs":[{"name":"id","type":"bytes32","internalType":"bytes32"},{"name":"age","type":"uint256","internalType":"uint256"}],"outputs":[{"name":"price","type":"tuple","internalType":"struct PythStructs.Price","components":[{"name":"price","type":"int64","internalType":"int64"},{"name":"conf","type":"uint64","internalType":"uint64"},{"name":"expo","type":"int32","internalType":"int32"},{"name":"publishTime","type":"uint256","internalType":"uint256"}]}],"stateMutability":"view"},{"type":"function","name":"getPriceUnsafe","inputs":[{"name":"id","type":"bytes32","internalType":"bytes32"}],"outputs":[{"name":"price","type":"tuple","internalType":"struct PythStructs.Price","components":[{"name":"price","type":"int64","internalType":"int64"},{"name":"conf","type":"uint64","internalType":"uint64"},{"name":"expo","type":"int32","internalType":"int32"},{"name":"publishTime","type":"uint256","internalType":"uint256"}]}],"stateMutability":"view"},{"type":"function","name":"getUpdateFee","inputs":[{"name":"updateData","type":"bytes[]","internalType":"bytes[]"}],"outputs":[{"name":"feeAmount","type":"uint256","internalType":"uint256"}],"stateMutability":"view"},{"type":"function","name":"getValidTimePeriod","inputs":[],"outputs":[{"name":"","type":"uint256","internalType":"uint256"}],"stateMutability":"view"},{"type":"function","name":"parsePriceFeedUpdates","inputs":[{"name":"updateData","type":"bytes[]","internalType":"bytes[]"},{"name":"priceIds","type":"bytes32[]","internalType":"bytes32[]"},{"name":"minPublishTime","type":"uint64","internalType":"uint64"},{"name":"maxPublishTime","type":"uint64","internalType":"uint64"}],"outputs":[{"name":"feeds","type":"tuple[]","internalType":"struct PythStructs.PriceFeed[]","components":[{"name":"id","type":"bytes32","internalType":"bytes32"},{"name":"price","type":"tuple","internalType":"struct PythStructs.Price","components":[{"name":"price","type":"int64","internalType":"int64"},{"name":"conf","type":"uint64","internalType":"uint64"},{"name":"expo","type":"int32","internalType":"int32"},{"name":"publishTime","type":"uint256","internalType":"uint256"}]},{"name":"emaPrice","type":"tuple","internalType":"struct PythStructs.Price","components":[{"name":"price","type":"int64","internalType":"int64"},{"name":"conf","type":"uint64","internalType":"uint64"},{"name":"expo","type":"int32","internalType":"int32"},{"name":"publishTime","type":"uint256","internalType":"uint256"}]}]}],"stateMutability":"payable"},{"type":"function","name":"priceFeedExists","inputs":[{"name":"id","type":"bytes32","internalType":"bytes32"}],"outputs":[{"name":"","type":"bool","internalType":"bool"}],"stateMutability":"view"},{"type":"function","name":"queryPriceFeed","inputs":[{"name":"id","type":"bytes32","internalType":"bytes32"}],"outputs":[{"name":"priceFeed","type":"tuple","internalType":"struct PythStructs.PriceFeed","components":[{"name":"id","type":"bytes32","internalType":"bytes32"},{"name":"price","type":"tuple","internalType":"struct PythStructs.Price","components":[{"name":"price","type":"int64","internalType":"int64"},{"name":"conf","type":"uint64","internalType":"uint64"},{"name":"expo","type":"int32","internalType":"int32"},{"name":"publishTime","type":"uint256","internalType":"uint256"}]},{"name":"emaPrice","type":"tuple","internalType":"struct PythStructs.Price","components":[{"name":"price","type":"int64","internalType":"int64"},{"name":"conf","type":"uint64","internalType":"uint64"},{"name":"expo","type":"int32","internalType":"int32"},{"name":"publishTime","type":"uint256","internalType":"uint256"}]}]}],"stateMutability":"view"},{"type":"function","name":"updatePriceFeeds","inputs":[{"name":"updateData","type":"bytes[]","internalType":"bytes[]"}],"outputs":[],"stateMutability":"payable"},{"type":"function","name":"updatePriceFeedsIfNecessary","inputs":[{"name":"updateData","type":"bytes[]","internalType":"bytes[]"},{"name":"priceIds","type":"bytes32[]","internalType":"bytes32[]"},{"name":"publishTimes","type":"uint64[]","internalType":"uint64[]"}],"outputs":[],"stateMutability":"payable"},{"type":"event","name":"BatchPriceFeedUpdate","inputs":[{"name":"chainId","type":"uint16","indexed":false,"internalType":"uint16"},{"name":"sequenceNumber","type":"uint64","indexed":false,"internalType":"uint64"}],"anonymous":false},{"type":"event","name":"PriceFeedUpdate","inputs":[{"name":"id","type":"bytes32","indexed":true,"internalType":"bytes32"},{"name":"publishTime","type":"uint64","indexed":false,"internalType":"uint64"},{"name":"price","type":"int64","indexed":false,"internalType":"int64"},{"name":"conf","type":"uint64","indexed":false,"internalType":"uint64"}],"anonymous":false},{"type":"error","name":"InsufficientFee","inputs":[]},{"type":"error","name":"InvalidArgument","inputs":[]},{"type":"error","name":"NoFreshUpdate","inputs":[]},{"type":"error","name":"PriceFeedNotFound","inputs":[]},{"type":"error","name":"PriceFeedNotFoundWithinRange","inputs":[]},{"type":"error","name":"StalePrice","inputs":[]}],"bytecode":{"object":"0x608034605657601f610d6538819003918201601f19168301916001600160401b03831184841017605a57808492604094855283398101031260565760208151910151600255600355604051610cf6908161006f8239f35b5f80fd5b634e487b7160e01b5f52604160045260245ffdfe60806040526004361015610011575f80fd5b5f3560e01c806331d98b3f146106195780634716e9c5146103f8578063711a2e28146103df5780639474f45b146103b657806396834ad31461037e57806396db632714610274578063a4ae35e01461025b578063b5dcc91114610224578063b5ec0261146101f1578063b9256d281461017b578063caaf43f11461014d578063d47eed451461010a578063e18910a3146100ed5763ef9e5e28146100b3575f80fd5b60203660031901126100e9576004356001600160401b0381116100e9576100e16100e7913690600401610675565b90610abd565b005b5f80fd5b346100e9575f3660031901126100e9576020600354604051908152f35b346100e95760203660031901126100e9576004356001600160401b0381116100e95761014561013f6020923690600401610675565b90610a92565b604051908152f35b346100e95760203660031901126100e95761012061016c600435610a32565b61017960405180926106bb565bf35b60603660031901126100e9576004356001600160401b0381116100e9576101a6903690600401610675565b6024356001600160401b0381116100e9576101c5903690600401610675565b60443593916001600160401b0385116100e9576101e96100e7953690600401610675565b94909361093f565b346100e95760203660031901126100e957602061021a6004355f525f60205260405f2054151590565b6040519015158152f35b346100e95760203660031901126100e95761023d610767565b50608061024e6003546004356108ec565b6101796040518092610643565b346100e957608061024e61026e366106e6565b90610931565b346100e95760e03660031901126100e9576024358060070b8091036100e95761029b6106a5565b90606435908160030b8092036100e9576084358060070b8091036100e95760a435926001600160401b0384168094036100e95760c435936001600160401b0385168095036100e95784606080956102f06107a2565b986004358a5260208a01918251526001600160401b03602083510191169052846040825101525101526040860192835152602083510152604082510152510152604080516103426020820180946106bb565b610120815261035361014082610746565b8151928391602083525180918160208501528484015e5f828201840152601f01601f19168101030190f35b346100e95760203660031901126100e957610397610767565b50608060206103a7600435610a32565b01516101796040518092610643565b346100e95760203660031901126100e9576103cf610767565b50608060406103a7600435610a32565b346100e957608061024e6103f2366106e6565b906108ec565b60803660031901126100e9576004356001600160401b0381116100e957610423903690600401610675565b6024356001600160401b0381116100e957610442903690600401610675565b61044a6106a5565b606435946001600160401b0386168096036100e9576104698582610a92565b341061060b576104788361078b565b956104866040519788610746565b838752601f196104958561078b565b015f5b8181106105f45750505f5b8481106104fb57876040518091602082016020835281518091526020604084019201905f5b8181106104d6575050500390f35b919350916020610120826104ed60019488516106bb565b0194019101918493926104c8565b5f5b87811061053a575b5061051081896108c8565b515161051d8287896108dc565b350361052b576001016104a3565b6345805f5d60e01b5f5260045ffd5b61055661054e828a879c999a9b959c6107cf565b810190610885565b6105608a886108c8565b5261056b89876108c8565b5061057689876108c8565b51516105838a898b6108dc565b3514610598575b6001019790969594976104fd565b606060206105ab8b899c959b9a996108c8565b510151015183816001600160401b038816111591826105e9575b50505f03610505576001905f6105e0848c999a9b959c6108c8565b5152905061058a565b11159050838b6105c5565b6020906105ff6107a2565b82828c01015201610498565b62976f7560e21b5f5260045ffd5b346100e95760203660031901126100e957610632610767565b50608061024e600354600435610931565b60608091805160070b84526001600160401b036020820151166020850152604081015160030b60408501520151910152565b9181601f840112156100e9578235916001600160401b0383116100e9576020808501948460051b0101116100e957565b604435906001600160401b03821682036100e957565b9060a060406106e493805184526106da60208201516020860190610643565b0151910190610643565b565b60409060031901126100e9576004359060243590565b608081019081106001600160401b0382111761071757604052565b634e487b7160e01b5f52604160045260245ffd5b606081019081106001600160401b0382111761071757604052565b90601f801991011681019081106001600160401b0382111761071757604052565b60405190610774826106fc565b5f6060838281528260208201528260408201520152565b6001600160401b0381116107175760051b60200190565b604051906107af8261072b565b815f81526107bb610767565b602082015260406107ca610767565b910152565b91908110156108105760051b81013590601e19813603018212156100e95701908135916001600160401b0383116100e95760200182360381136100e9579190565b634e487b7160e01b5f52603260045260245ffd5b91908260809103126100e95760405161083c816106fc565b809280358060070b81036100e957825260208101356001600160401b03811681036100e957602083015260408101358060030b81036100e9576040830152606090810135910152565b90610120828203126100e9576108c09060a0604051936108a48561072b565b803585526108b58360208301610824565b602086015201610824565b604082015290565b80518210156108105760209160051b010190565b91908110156108105760051b0190565b6109096040916108fa610767565b50610903610767565b50610a32565b01519061091a606083015142610ca2565b116109225790565b630cd5fa0760e11b5f5260045ffd5b6109096020916108fa610767565b929390938581036109e4575f5b81811061096257636f162bfd60e11b5f5260045ffd5b6109816109708284876108dc565b355f525f60205260405f2054151590565b1580156109a3575b6109955760010161094c565b505050506106e49250610abd565b50606060206109bc6109b68486896108dc565b35610a32565b015101516109cb8289866108dc565b35906001600160401b0382168092036100e95710610989565b63a9cb9e0d60e01b5f5260045ffd5b90604051610a00816106fc565b60606001829480548060070b85526001600160401b038160401c16602086015260801c60030b60408501520154910152565b610a3a6107a2565b50805f525f60205260405f205415610a83575f525f60205260405f206108c0600360405192610a688461072b565b80548452610a78600182016109f3565b6020850152016109f3565b630295d7cd60e31b5f5260045ffd5b50600254818102918183041490151715610aa95790565b634e487b7160e01b5f52601160045260245ffd5b90610ac88183610a92565b341061060b575f5b818110610b415750505060015460016001600160401b0382167f943f0e8a16c19895fb87cbeb1a349ed86d7f31923089dd36c1a1ed5e300f267b60408051848152836020820152a1016001600160401b038111610aa9576001600160401b0316906001600160401b03191617600155565b80610b5261054e60019385876107cf565b80515f525f602052600260405f200154602082016060815101518210610b7c575b50505001610ad0565b7fd06a6b7f4918494b3719217d1802786c1f5112a6c1d88fe2cfec00b4584f6aec9160609184515f525f6020526001600160401b0360405f20958051968781556004868b8301955193845196805497602087019867ffffffffffffffff60401b8a5160401b16908960408a015160801b63ffffffff60801b169316906bffffffffffffffffffffffff60a01b161717179055818501516002850155604060038501910151908151815467ffffffffffffffff60401b602085015160401b169089604086015160801b63ffffffff60801b169316906bffffffffffffffffffffffff60a01b16171717905501519101555160070b915116906001600160401b036040519316835260208301526040820152a25f8080610b73565b91908203918211610aa957565b81811115610cb75790610cb491610c95565b90565b610cb491610c9556fea2646970667358221220a57e59ee440eb3e3024ccd17216ebcce73d74471d5d38db802775dd6dc75549664736f6c634300081c0033","linkReferences":{}},"methodIdentifiers":{"createPriceFeedUpdateData(bytes32,int64,uint64,int32,int64,uint64,uint64)":"96db6327","getEmaPrice(bytes32)":"b5dcc911","getEmaPriceNoOlderThan(bytes32,uint256)":"711a2e28","getEmaPriceUnsafe(bytes32)":"9474f45b","getPrice(bytes32)":"31d98b3f","getPriceNoOlderThan(bytes32,uint256)":"a4ae35e0","getPriceUnsafe(bytes32)":"96834ad3","getUpdateFee(bytes[])":"d47eed45","getValidTimePeriod()":"e18910a3","parsePriceFeedUpdates(bytes[],bytes32[],uint64,uint64)":"4716e9c5","priceFeedExists(bytes32)":"b5ec0261","queryPriceFeed(bytes32)":"caaf43f1","updatePriceFeeds(bytes[])":"ef9e5e28","updatePriceFeedsIfNecessary(bytes[],bytes32[],uint64[])":"b9256d28"},"id":31}