{"abi":[{"type":"constructor","inputs":[{"name":"exchange_","type":"address","internalType":"address"},{"name":"pythAdapter_","type":"address","internalType":"address"},{"name":"owner_","type":"address","internalType":"address"}],"stateMutability":"nonpayable"},{"type":"function","name":"addKeeper","inputs":[{"name":"keeper_","type":"address","internalType":"address"}],"outputs":[],"stateMutability":"nonpayable"},{"type":"function","name":"closeMarket","inputs":[{"name":"pxTokens","type":"address[]","internalType":"address[]"},{"name":"pythUpdateData","type":"bytes[]","internalType":"bytes[]"}],"outputs":[],"stateMutability":"payable"},{"type":"function","name":"emergencyCloseMarket","inputs":[],"outputs":[],"stateMutability":"nonpayable"},{"type":"function","name":"exchange","inputs":[],"outputs":[{"name":"","type":"address","internalType":"contract XStreamExchange"}],"stateMutability":"view"},{"type":"function","name":"getKeeperStatus","inputs":[{"name":"addr","type":"address","internalType":"address"}],"outputs":[{"name":"","type":"bool","internalType":"bool"}],"stateMutability":"view"},{"type":"function","name":"isMarketOpen","inputs":[],"outputs":[{"name":"","type":"bool","internalType":"bool"}],"stateMutability":"view"},{"type":"function","name":"keepers","inputs":[{"name":"","type":"address","internalType":"address"}],"outputs":[{"name":"","type":"bool","internalType":"bool"}],"stateMutability":"view"},{"type":"function","name":"openMarket","inputs":[],"outputs":[],"stateMutability":"nonpayable"},{"type":"function","name":"owner","inputs":[],"outputs":[{"name":"","type":"address","internalType":"address"}],"stateMutability":"view"},{"type":"function","name":"pythAdapter","inputs":[],"outputs":[{"name":"","type":"address","internalType":"contract PythAdapter"}],"stateMutability":"view"},{"type":"function","name":"removeKeeper","inputs":[{"name":"keeper_","type":"address","internalType":"address"}],"outputs":[],"stateMutability":"nonpayable"},{"type":"function","name":"renounceOwnership","inputs":[],"outputs":[],"stateMutability":"nonpayable"},{"type":"function","name":"transferOwnership","inputs":[{"name":"newOwner","type":"address","internalType":"address"}],"outputs":[],"stateMutability":"nonpayable"},{"type":"event","name":"EmergencyClose","inputs":[{"name":"timestamp","type":"uint256","indexed":false,"internalType":"uint256"}],"anonymous":false},{"type":"event","name":"KeeperAdded","inputs":[{"name":"keeper","type":"address","indexed":true,"internalType":"address"}],"anonymous":false},{"type":"event","name":"KeeperRemoved","inputs":[{"name":"keeper","type":"address","indexed":true,"internalType":"address"}],"anonymous":false},{"type":"event","name":"MarketClosed","inputs":[{"name":"timestamp","type":"uint256","indexed":false,"internalType":"uint256"},{"name":"positionsSettled","type":"uint256","indexed":false,"internalType":"uint256"}],"anonymous":false},{"type":"event","name":"MarketOpened","inputs":[{"name":"timestamp","type":"uint256","indexed":false,"internalType":"uint256"}],"anonymous":false},{"type":"event","name":"OwnershipTransferred","inputs":[{"name":"previousOwner","type":"address","indexed":true,"internalType":"address"},{"name":"newOwner","type":"address","indexed":true,"internalType":"address"}],"anonymous":false},{"type":"error","name":"AlreadyClosed","inputs":[]},{"type":"error","name":"AlreadyOpen","inputs":[]},{"type":"error","name":"OnlyKeeper","inputs":[]},{"type":"error","name":"OwnableInvalidOwner","inputs":[{"name":"owner","type":"address","internalType":"address"}]},{"type":"error","name":"OwnableUnauthorizedAccount","inputs":[{"name":"account","type":"address","internalType":"address"}]}],"bytecode":{"object":"0x60c03461011157601f610b0138819003918201601f19168301916001600160401b03831184841017610115578084926060946040528339810103126101115761004781610129565b9061005460208201610129565b906001600160a01b039061006a90604001610129565b169182156100fe575f80546001600160a01b031981168517825560405194916001600160a01b03909116907f8be0079c531659141344cd1fd0a4f28419497f9722a3daafe3b4186f6b6457e09080a36001600160a01b039081166080521660a0526109c3908161013e8239608051818181610170015281816101c5015281816102e90152610785015260a051816107130152f35b631e4fbdf760e01b5f525f60045260245ffd5b5f80fd5b634e487b7160e01b5f52604160045260245ffd5b51906001600160a01b03821682036101115756fe60806040526004361015610011575f80fd5b5f5f3560e01c806314ae9f2e146108605780633606f5b91461074257806337e301df146106fd5780633bbd64bc146105cd5780634032b72b14610690578063715018a6146106365780638da5cb5b1461060f57806393b6cc47146105cd5780639454e4f61461026e5780639bbb9ffa1461019f578063d2f7265a1461015a578063d4ce85f3146101375763f2fde38b146100a9575f80fd5b34610134576020366003190112610134576004356001600160a01b03811690819003610132576100d7610967565b801561011e5781546001600160a01b03198116821783556001600160a01b03167f8be0079c531659141344cd1fd0a4f28419497f9722a3daafe3b4186f6b6457e08380a380f35b631e4fbdf760e01b82526004829052602482fd5b505b80fd5b5034610134578060031936011261013457602060ff600254166040519015158152f35b50346101345780600319360112610134576040517f00000000000000000000000000000000000000000000000000000000000000006001600160a01b03168152602090f35b50346101345780600319360112610134576101b8610967565b6002805460ff19169055807f00000000000000000000000000000000000000000000000000000000000000006001600160a01b0316803b1561026b578180916024604051809481936309ef2ed560e01b83528160048401525af180156102605761024b575b507fac357094c04cfedba6eb16c64708670355619ee0f1d52ac8dd5b88c5e155544f6020604051428152a180f35b81610255916108f9565b61013457805f61021d565b6040513d84823e3d90fd5b50fd5b5060403660031901126101345760043567ffffffffffffffff81116101325761029b9036906004016108c8565b9060243567ffffffffffffffff81116105c9576102bc9036906004016108c8565b338552600160205260ff60408620541615806105b5575b6105a65760ff60025416156105975790939283927f00000000000000000000000000000000000000000000000000000000000000006001600160a01b0316929091845b8181106103a4578686818760ff1960025416600255803b15610132578180916024604051809481936309ef2ed560e01b83528160048401525af180156102605761038f575b507fca574a2a0ef315b41f7e803c5534dcfe30424bdfc5896ad1c291d74e372e186e6040838151904282526020820152a180f35b81610399916108f9565b61013257818361035b565b6103b76103b282848761092f565b610953565b6040516316d7137160e11b81526001600160a01b039091166004820152602081602481895afa9081156104d5578891610566575b506103f9575b600101610316565b949681156105525761040f6103b287848761092f565b604080516361f48fd760e11b81526001600160a01b039092166004830152602482015260448101849052600584901b810160649081019082908490820136829003601e19018c5b8981106104e057505050508060409203818634048a5af19081156104d55788916104a0575b50880180981161048c5796946103f1565b634e487b7160e01b87526011600452602487fd5b90506040813d82116104cd575b816104ba604093836108f9565b810103126104c957515f61047b565b8780fd5b3d91506104ad565b6040513d8a823e3d90fd5b919350919360631986820301845284358381121561054e57870160208135910167ffffffffffffffff821161054a57813603811361054a5760208f9383600195818496958596855285850137838284010152601f8019910116010196019401910191859392610456565b8e80fd5b8d80fd5b634e487b7160e01b87526012600452602487fd5b90506020813d821161058f575b81610580602093836108f9565b810103126104c957515f6103eb565b3d9150610573565b634d65bf2960e11b8552600485fd5b63c60eb33560e01b8552600485fd5b5084546001600160a01b03163314156102d3565b8380fd5b5034610134576020366003190112610134576004356001600160a01b038116908190036101325760408260ff9260209452600184522054166040519015158152f35b5034610134578060031936011261013457546040516001600160a01b039091168152602090f35b503461013457806003193601126101345761064f610967565b80546001600160a01b03198116825581906001600160a01b03167f8be0079c531659141344cd1fd0a4f28419497f9722a3daafe3b4186f6b6457e08280a380f35b5034610134576020366003190112610134576004356001600160a01b03811690819003610132576106bf610967565b808252600160205260408220600160ff198254161790557f1584773458d98c71b34a270ee1100b3a42889bf91e3b7a858563b684c24d838e8280a280f35b50346101345780600319360112610134576040517f00000000000000000000000000000000000000000000000000000000000000006001600160a01b03168152602090f35b503461082a575f36600319011261082a57335f52600160205260ff60405f205416158061084c575b61083d5760025460ff811661082e5760ff19166001176002557f00000000000000000000000000000000000000000000000000000000000000006001600160a01b0316803b1561082a575f80916024604051809481936309ef2ed560e01b8352600160048401525af1801561081f5761080c575b507f877332afc4cf5a3b3ce30a19161c7d2e263703799bec37d80f6bbbf4199e59c76020604051428152a180f35b61081891505f906108f9565b5f5f6107de565b6040513d5f823e3d90fd5b5f80fd5b632597e36560e21b5f5260045ffd5b63c60eb33560e01b5f5260045ffd5b505f546001600160a01b031633141561076a565b3461082a57602036600319011261082a576004356001600160a01b0381169081900361082a5761088e610967565b805f52600160205260405f2060ff1981541690557fa7a775c2c8141f7985c111748ec31c11e5e44b83528e105c8d1d4e8e6b81cf805f80a2005b9181601f8401121561082a5782359167ffffffffffffffff831161082a576020808501948460051b01011161082a57565b90601f8019910116810190811067ffffffffffffffff82111761091b57604052565b634e487b7160e01b5f52604160045260245ffd5b919081101561093f5760051b0190565b634e487b7160e01b5f52603260045260245ffd5b356001600160a01b038116810361082a5790565b5f546001600160a01b0316330361097a57565b63118cdaa760e01b5f523360045260245ffdfea26469706673582212206f3f8293398f46f4a53371e2889387b1502b05cbefb6e29742eaa2194ca92dd364736f6c634300081c0033","linkReferences":{}},"methodIdentifiers":{"addKeeper(address)":"4032b72b","closeMarket(address[],bytes[])":"9454e4f6","emergencyCloseMarket()":"9bbb9ffa","exchange()":"d2f7265a","getKeeperStatus(address)":"93b6cc47","isMarketOpen()":"d4ce85f3","keepers(address)":"3bbd64bc","openMarket()":"3606f5b9","owner()":"8da5cb5b","pythAdapter()":"37e301df","removeKeeper(address)":"14ae9f2e","renounceOwnership()":"715018a6","transferOwnership(address)":"f2fde38b"},"id":34}