{"abi":[{"type":"constructor","inputs":[{"name":"name_","type":"string","internalType":"string"},{"name":"symbol_","type":"string","internalType":"string"},{"name":"exchange_","type":"address","internalType":"address"},{"name":"transferable_","type":"bool","internalType":"bool"}],"stateMutability":"nonpayable"},{"type":"function","name":"allowance","inputs":[{"name":"owner","type":"address","internalType":"address"},{"name":"spender","type":"address","internalType":"address"}],"outputs":[{"name":"","type":"uint256","internalType":"uint256"}],"stateMutability":"view"},{"type":"function","name":"approve","inputs":[{"name":"spender","type":"address","internalType":"address"},{"name":"value","type":"uint256","internalType":"uint256"}],"outputs":[{"name":"","type":"bool","internalType":"bool"}],"stateMutability":"nonpayable"},{"type":"function","name":"balanceOf","inputs":[{"name":"account","type":"address","internalType":"address"}],"outputs":[{"name":"","type":"uint256","internalType":"uint256"}],"stateMutability":"view"},{"type":"function","name":"burn","inputs":[{"name":"from","type":"address","internalType":"address"},{"name":"amount","type":"uint256","internalType":"uint256"}],"outputs":[],"stateMutability":"nonpayable"},{"type":"function","name":"decimals","inputs":[],"outputs":[{"name":"","type":"uint8","internalType":"uint8"}],"stateMutability":"view"},{"type":"function","name":"exchange","inputs":[],"outputs":[{"name":"","type":"address","internalType":"address"}],"stateMutability":"view"},{"type":"function","name":"mint","inputs":[{"name":"to","type":"address","internalType":"address"},{"name":"amount","type":"uint256","internalType":"uint256"}],"outputs":[],"stateMutability":"nonpayable"},{"type":"function","name":"name","inputs":[],"outputs":[{"name":"","type":"string","internalType":"string"}],"stateMutability":"view"},{"type":"function","name":"symbol","inputs":[],"outputs":[{"name":"","type":"string","internalType":"string"}],"stateMutability":"view"},{"type":"function","name":"totalSupply","inputs":[],"outputs":[{"name":"","type":"uint256","internalType":"uint256"}],"stateMutability":"view"},{"type":"function","name":"transfer","inputs":[{"name":"to","type":"address","internalType":"address"},{"name":"value","type":"uint256","internalType":"uint256"}],"outputs":[{"name":"","type":"bool","internalType":"bool"}],"stateMutability":"nonpayable"},{"type":"function","name":"transferFrom","inputs":[{"name":"from","type":"address","internalType":"address"},{"name":"to","type":"address","internalType":"address"},{"name":"value","type":"uint256","internalType":"uint256"}],"outputs":[{"name":"","type":"bool","internalType":"bool"}],"stateMutability":"nonpayable"},{"type":"function","name":"transferable","inputs":[],"outputs":[{"name":"","type":"bool","internalType":"bool"}],"stateMutability":"view"},{"type":"event","name":"Approval","inputs":[{"name":"owner","type":"address","indexed":true,"internalType":"address"},{"name":"spender","type":"address","indexed":true,"internalType":"address"},{"name":"value","type":"uint256","indexed":false,"internalType":"uint256"}],"anonymous":false},{"type":"event","name":"Transfer","inputs":[{"name":"from","type":"address","indexed":true,"internalType":"address"},{"name":"to","type":"address","indexed":true,"internalType":"address"},{"name":"value","type":"uint256","indexed":false,"internalType":"uint256"}],"anonymous":false},{"type":"error","name":"ERC20InsufficientAllowance","inputs":[{"name":"spender","type":"address","internalType":"address"},{"name":"allowance","type":"uint256","internalType":"uint256"},{"name":"needed","type":"uint256","internalType":"uint256"}]},{"type":"error","name":"ERC20InsufficientBalance","inputs":[{"name":"sender","type":"address","internalType":"address"},{"name":"balance","type":"uint256","internalType":"uint256"},{"name":"needed","type":"uint256","internalType":"uint256"}]},{"type":"error","name":"ERC20InvalidApprover","inputs":[{"name":"approver","type":"address","internalType":"address"}]},{"type":"error","name":"ERC20InvalidReceiver","inputs":[{"name":"receiver","type":"address","internalType":"address"}]},{"type":"error","name":"ERC20InvalidSender","inputs":[{"name":"sender","type":"address","internalType":"address"}]},{"type":"error","name":"ERC20InvalidSpender","inputs":[{"name":"spender","type":"address","internalType":"address"}]},{"type":"error","name":"OnlyExchange","inputs":[]},{"type":"error","name":"TransfersDisabled","inputs":[]}],"bytecode":{"object":"0x60c06040523461037757610d14803803806100198161037b565b9283398101906080818303126103775780516001600160401b03811161037757826100459183016103a0565b602082015190926001600160401b038211610377576100659183016103a0565b604082015190916001600160a01b038216820361037757606001519081151582036103775783516001600160401b03811161028857600354600181811c9116801561036d575b602082101461026a57601f811161030a575b50602094601f82116001146102a7579481929394955f9261029c575b50508160011b915f199060031b1c1916176003555b82516001600160401b03811161028857600454600181811c9116801561027e575b602082101461026a57601f8111610207575b506020601f82116001146101a457819293945f92610199575b50508160011b915f199060031b1c1916176004555b60805260a05260405161092290816103f2823960805181818161011401528181610193015261045f015260a0518181816101d2015281816103e40152818161049f01526108350152f35b015190505f8061013a565b601f1982169060045f52805f20915f5b8181106101ef575095836001959697106101d7575b505050811b0160045561014f565b01515f1960f88460031b161c191690555f80806101c9565b9192602060018192868b0151815501940192016101b4565b60045f527f8a35acfbc15ff81a39ae7d344fd709f28e8600b4aa8c65c6b64bfe7fe36bd19b601f830160051c81019160208410610260575b601f0160051c01905b8181106102555750610121565b5f8155600101610248565b909150819061023f565b634e487b7160e01b5f52602260045260245ffd5b90607f169061010f565b634e487b7160e01b5f52604160045260245ffd5b015190505f806100d9565b601f1982169560035f52805f20915f5b8881106102f2575083600195969798106102da575b505050811b016003556100ee565b01515f1960f88460031b161c191690555f80806102cc565b919260206001819286850151815501940192016102b7565b60035f527fc2575a0e9e593c00f959f8c92f12db2869c3395a3b0502d05e2516446f71f85b601f830160051c81019160208410610363575b601f0160051c01905b81811061035857506100bd565b5f815560010161034b565b9091508190610342565b90607f16906100ab565b5f80fd5b6040519190601f01601f191682016001600160401b0381118382101761028857604052565b81601f82011215610377578051906001600160401b038211610288576103cf601f8301601f191660200161037b565b928284526020838301011161037757815f9260208093018386015e830101529056fe6080806040526004361015610012575f80fd5b5f3560e01c90816306fdde03146106ee57508063095ea7b31461066c57806318160ddd1461064f57806323b872dd14610570578063313ce5671461055557806340c10f191461044057806370a082311461040957806392ff0d31146103cd57806395d89b41146102b25780639dc29fac14610174578063a9059cbb14610143578063d2f7265a146100ff5763dd62ed3e146100ab575f80fd5b346100fb5760403660031901126100fb576100c46107e7565b6100cc6107fd565b6001600160a01b039182165f908152600160209081526040808320949093168252928352819020549051908152f35b5f80fd5b346100fb575f3660031901126100fb576040517f00000000000000000000000000000000000000000000000000000000000000006001600160a01b03168152602090f35b346100fb5760403660031901126100fb5761016961015f6107e7565b6024359033610813565b602060405160018152f35b346100fb5760403660031901126100fb5761018d6107e7565b602435907f00000000000000000000000000000000000000000000000000000000000000006001600160a01b031633036102a3576001600160a01b03168015610290577f00000000000000000000000000000000000000000000000000000000000000001580610288575b80610281575b61027257805f525f60205260405f2054828110610259576020835f947fddf252ad1be2c89b69c2b068fc378daa952ba7f163c4a11628f55a4df523b3ef938587528684520360408620558060025403600255604051908152a3005b9063391434e360e21b5f5260045260245260445260645ffd5b638574adcf60e01b5f5260045ffd5b505f6101fe565b5060016101f8565b634b637e8f60e11b5f525f60045260245ffd5b633669159560e01b5f5260045ffd5b346100fb575f3660031901126100fb576040515f6004548060011c906001811680156103c3575b6020831081146103af57828552908115610393575060011461033e575b50819003601f01601f191681019067ffffffffffffffff82118183101761032a57610326829182604052826107bd565b0390f35b634e487b7160e01b5f52604160045260245ffd5b905060045f527f8a35acfbc15ff81a39ae7d344fd709f28e8600b4aa8c65c6b64bfe7fe36bd19b5f905b82821061037d575060209150820101826102f6565b6001816020925483858801015201910190610368565b90506020925060ff191682840152151560051b820101826102f6565b634e487b7160e01b5f52602260045260245ffd5b91607f16916102d9565b346100fb575f3660031901126100fb5760206040517f000000000000000000000000000000000000000000000000000000000000000015158152f35b346100fb5760203660031901126100fb576001600160a01b0361042a6107e7565b165f525f602052602060405f2054604051908152f35b346100fb5760403660031901126100fb576104596107e7565b602435907f00000000000000000000000000000000000000000000000000000000000000006001600160a01b031633036102a3576001600160a01b0316908115610542577f0000000000000000000000000000000000000000000000000000000000000000158061053b575b80610533575b610272576002549080820180921161051f5760207fddf252ad1be2c89b69c2b068fc378daa952ba7f163c4a11628f55a4df523b3ef915f9360025584845283825260408420818154019055604051908152a3005b634e487b7160e01b5f52601160045260245ffd5b5060016104cb565b505f6104c5565b63ec442f0560e01b5f525f60045260245ffd5b346100fb575f3660031901126100fb57602060405160128152f35b346100fb5760603660031901126100fb576105896107e7565b6105916107fd565b6001600160a01b0382165f818152600160209081526040808320338452909152902054909260443592915f1981106105cf575b506101699350610813565b83811061063457841561062157331561060e57610169945f52600160205260405f2060018060a01b0333165f526020528360405f2091039055846105c4565b634a1406b160e11b5f525f60045260245ffd5b63e602df0560e01b5f525f60045260245ffd5b8390637dc7a0d960e11b5f523360045260245260445260645ffd5b346100fb575f3660031901126100fb576020600254604051908152f35b346100fb5760403660031901126100fb576106856107e7565b602435903315610621576001600160a01b031690811561060e57335f52600160205260405f20825f526020528060405f20556040519081527f8c5be1e5ebec7d5bd14f71427d1e84f3dd0314c0f7b2291e5b200ac8c7c3b92560203392a3602060405160018152f35b346100fb575f3660031901126100fb575f6003548060011c906001811680156107b3575b6020831081146103af57828552908115610393575060011461075e5750819003601f01601f191681019067ffffffffffffffff82118183101761032a57610326829182604052826107bd565b905060035f527fc2575a0e9e593c00f959f8c92f12db2869c3395a3b0502d05e2516446f71f85b5f905b82821061079d575060209150820101826102f6565b6001816020925483858801015201910190610788565b91607f1691610712565b602060409281835280519182918282860152018484015e5f828201840152601f01601f1916010190565b600435906001600160a01b03821682036100fb57565b602435906001600160a01b03821682036100fb57565b6001600160a01b0316908115610290576001600160a01b0316918215610542577f000000000000000000000000000000000000000000000000000000000000000015806108e4575b806108dc575b61027257815f525f60205260405f20548181106108c357817fddf252ad1be2c89b69c2b068fc378daa952ba7f163c4a11628f55a4df523b3ef92602092855f525f84520360405f2055845f525f825260405f20818154019055604051908152a3565b8263391434e360e21b5f5260045260245260445260645ffd5b506001610861565b50600161085b56fea26469706673582212201435a2e4ec9fe9dfed6e1986d41717fe9883e071c7f2eae8a96bd516f9305af364736f6c634300081c0033","linkReferences":{}},"methodIdentifiers":{"allowance(address,address)":"dd62ed3e","approve(address,uint256)":"095ea7b3","balanceOf(address)":"70a08231","burn(address,uint256)":"9dc29fac","decimals()":"313ce567","exchange()":"d2f7265a","mint(address,uint256)":"40c10f19","name()":"06fdde03","symbol()":"95d89b41","totalSupply()":"18160ddd","transfer(address,uint256)":"a9059cbb","transferFrom(address,address,uint256)":"23b872dd","transferable()":"92ff0d31"},"id":42}